{
  "address": "0x0b081b724CDC4DD9186E64F259b5fC589a4Fd7D0",
  "abi": [
    {
      "inputs": [
        {
          "internalType": "address",
          "name": "_uniV3Router",
          "type": "address"
        }
      ],
      "stateMutability": "nonpayable",
      "type": "constructor"
    },
    {
      "inputs": [
        {
          "internalType": "uint256",
          "name": "_amountIn",
          "type": "uint256"
        },
        {
          "internalType": "address",
          "name": "_fromAsset",
          "type": "address"
        },
        {
          "internalType": "address",
          "name": "_toAsset",
          "type": "address"
        },
        {
          "internalType": "bytes",
          "name": "_swapData",
          "type": "bytes"
        }
      ],
      "name": "swap",
      "outputs": [
        {
          "internalType": "uint256",
          "name": "amountOut",
          "type": "uint256"
        }
      ],
      "stateMutability": "nonpayable",
      "type": "function"
    },
    {
      "inputs": [
        {
          "internalType": "uint256",
          "name": "_amountIn",
          "type": "uint256"
        },
        {
          "internalType": "address",
          "name": "_toAsset",
          "type": "address"
        },
        {
          "internalType": "bytes",
          "name": "_swapData",
          "type": "bytes"
        }
      ],
      "name": "swapETH",
      "outputs": [
        {
          "internalType": "uint256",
          "name": "amountOut",
          "type": "uint256"
        }
      ],
      "stateMutability": "payable",
      "type": "function"
    },
    {
      "inputs": [],
      "name": "uniswapV3Router",
      "outputs": [
        {
          "internalType": "contract IPancakeSmartRouter",
          "name": "",
          "type": "address"
        }
      ],
      "stateMutability": "view",
      "type": "function"
    },
    {
      "stateMutability": "payable",
      "type": "receive"
    }
  ],
  "transactionHash": "0x0063017e11fc9e4261f47c638a6590b285c9d4424495ff2e1698f68abfc73fa2",
  "args": [
    "0x13f4EA83D0bd40E75C8222255bc855a974568Dd4"
  ],
  "numDeployments": 1,
  "solcInputHash": "5baa44abeea841b29c26c38421b92a9b",
  "bytecode": "0x60a03461007957601f610a2638819003918201601f19168301916001600160401b0383118484101761007e5780849260209460405283398101031261007957516001600160a01b03811690819003610079576080526040516109919081610095823960805181818160b30152818161038301526106720152f35b600080fd5b634e487b7160e01b600052604160045260246000fdfe6080604081815260049081361015610022575b505050361561002057600080fd5b005b600092833560e01c9081632c76d7a61461065e57508063a2c554d31461029e5763f6b13d3f0361001257606036600319011261029a5781356100626106a1565b9360443567ffffffffffffffff81116102965761008290369086016106b7565b8334106102425790610096918101906106e5565b84516312a9293f60e21b8152919660209690926001600160a01b037f00000000000000000000000000000000000000000000000000000000000000008116939189818581885afa9081156101ef579082918891610215575b50169416958615156000146101fd57843b156101f9578751630d0e30db60e41b815299868b8581858a5af19a8b156101ef578a9b9a9798999a6101d5575b5062ffffff9061017e98998b519761014389610707565b8852888801521689860152336060860152608085015260a08401528560c08401528587518096819582946304e45aaf60e01b8452830161078e565b03925af19182156101ca5791610198575b50905b51908152f35b90508281813d83116101c3575b6101af818361074d565b810103126101be57513861018f565b600080fd5b503d6101a5565b8351903d90823e3d90fd5b9061017e986101e762ffffff93610739565b98509061012c565b89513d89823e3d90fd5b8580fd5b97985050505050505061021082336108f4565b610192565b61023591508b3d8d1161023b575b61022d818361074d565b81019061076f565b386100ee565b503d610223565b845162461bcd60e51b8152602081880152602860248201527f50616e63616b655633537761707065723a206d73672e76616c756520213d205f60448201526730b6b7bab73a24b760c11b6064820152608490fd5b5080fd5b8280fd5b50829034610296576080366003190112610296578235916102bd6106a1565b936001600160a01b036044358181169591929086810361065a5767ffffffffffffffff92606435848111610656576102f890369085016106b7565b999088519a60209b8c8101906323b872dd60e01b8252602498338a8301523060448301528660648301526064825260a082019082821090821117610644578c52518a9182919082875af161034a6107ea565b81610614575b50156105ec5790610363918101906106e5565b9099828816928c8483146105d3578b5163095ea7b360e01b9181019182527f00000000000000000000000000000000000000000000000000000000000000008b166001600160a01b0381168b830190815260208101899052909794938d9384939192909184916103e19082906040015b03601f19810183528261074d565b51925af18d6103ee6107ea565b826105a1575b50501561057957159a8a516312a9293f60e21b81528d818981895afa90811561056f57928d8f96938c8f97948f9d9c9b9a978e91610552575b50169c6104899762ffffff938f901561054a57905b519661044d88610707565b87521688860152168d840152306060840152608083015260a08201528760c08201528a51998a809481936304e45aaf60e01b835289830161078e565b03925af195861561054057849661050d575b5085976000146104fc5750833b1561029a57829185918388519687948593632e1a7d4d60e01b85528401525af19081156104f157509061019292916104e2575b50336108f4565b6104eb90610739565b856104db565b8451903d90823e3d90fd5b925050506102109291503390610842565b9095508881813d8311610539575b610525818361074d565b810103126105355751948961049b565b8380fd5b503d61051b565b87513d86823e3d90fd5b508a90610442565b61056991508a3d8c1161023b5761022d818361074d565b3861042d565b8c513d8d823e3d90fd5b50895162461bcd60e51b81528087018d905260028189015261534160f01b6044820152606490fd5b80919250519182159283156105bb575b5050508d8f6103f4565b6105cb935082018101910161082a565b8e8e816105b1565b5050505050935095505050610210915080933390610842565b895162461bcd60e51b81528087018d90526003818901526229aa2360e91b6044820152606490fd5b8051801592508e90831561062c575b5050508d610350565b61063c935082018101910161082a565b8d8d81610623565b634e487b7160e01b8c5260418952898cfd5b8680fd5b8480fd5b8490346102965781600319360112610296577f00000000000000000000000000000000000000000000000000000000000000006001600160a01b03168152602090f35b602435906001600160a01b03821682036101be57565b9181601f840112156101be5782359167ffffffffffffffff83116101be57602083818601950101116101be57565b91908260409103126101be57813562ffffff811681036101be57916020013590565b60e0810190811067ffffffffffffffff82111761072357604052565b634e487b7160e01b600052604160045260246000fd5b67ffffffffffffffff811161072357604052565b90601f8019910116810190811067ffffffffffffffff82111761072357604052565b908160209103126101be57516001600160a01b03811681036101be5790565b91909160c060e08201938160018060a01b039182815116855282602082015116602086015262ffffff60408201511660408601528260608201511660608601526080810151608086015260a081015160a0860152015116910152565b3d15610825573d9067ffffffffffffffff82116107235760405191610819601f8201601f19166020018461074d565b82523d6000602084013e565b606090565b908160209103126101be575180151581036101be5790565b60405163a9059cbb60e01b602082019081526001600160a01b0390931660248201526044810193909352600092839290839061088181606481016103d3565b51925af161088d6107ea565b816108c5575b501561089b57565b60405162461bcd60e51b815260206004820152600260248201526114d560f21b6044820152606490fd5b80518015925082156108da575b505038610893565b6108ed925060208091830101910161082a565b38806108d2565b604051602081019080821067ffffffffffffffff831117610723576000938493848094938194604052525af16109286107ea565b501561093057565b60405162461bcd60e51b815260206004820152600360248201526253544560e81b6044820152606490fdfea264697066735822122010d82036e59137ff30f0f4f13644f5ed16675d64189da65d62ff5436f0692f1564736f6c63430008130033",
  "devdoc": {
    "kind": "dev",
    "methods": {
      "swap(uint256,address,address,bytes)": {
        "details": "Decode the passed in data and re-encode it with the correct amountIn. This is because the amountIn is not known until the funds are transferred to this contract.",
        "params": {
          "_amountIn": "Amount of tokens to swap.",
          "_fromAsset": "Address of the token to swap from.",
          "_swapData": "Data to pass to the PancakeV3 router.",
          "_toAsset": "Address of the token to swap to."
        }
      },
      "swapETH(uint256,address,bytes)": {
        "details": "Decode the passed in data and re-encode it with the correct amountIn. This is because the amountIn is not known until the funds are transferred to this contract.",
        "params": {
          "_amountIn": "Amount of tokens to swap.",
          "_swapData": "Data to pass to the PancakeV3 router.",
          "_toAsset": "Address of the token to swap to."
        }
      }
    },
    "title": "PancakeV3Swapper",
    "version": 1
  },
  "userdoc": {
    "kind": "user",
    "methods": {
      "swap(uint256,address,address,bytes)": {
        "notice": "Swap the given amount of tokens using PancakeSwapV3."
      },
      "swapETH(uint256,address,bytes)": {
        "notice": "Swap the given amount of ETH using PancakeSwapV3."
      }
    },
    "notice": "Swapper contract for PancakeV3 swaps.",
    "version": 1
  },
  "storageLayout": {
    "storage": [],
    "types": null
  }
}