{
  "address": "0x911b8C1b2d99c5bBB82BC1F71c85A3a54d2dFfcE",
  "abi": [
    {
      "inputs": [
        {
          "internalType": "address",
          "name": "_uniV3Router",
          "type": "address"
        }
      ],
      "stateMutability": "nonpayable",
      "type": "constructor"
    },
    {
      "inputs": [
        {
          "internalType": "uint256",
          "name": "_amountIn",
          "type": "uint256"
        },
        {
          "internalType": "address",
          "name": "_fromAsset",
          "type": "address"
        },
        {
          "internalType": "address",
          "name": "_toAsset",
          "type": "address"
        },
        {
          "internalType": "bytes",
          "name": "_swapData",
          "type": "bytes"
        }
      ],
      "name": "swap",
      "outputs": [
        {
          "internalType": "uint256",
          "name": "amountOut",
          "type": "uint256"
        }
      ],
      "stateMutability": "payable",
      "type": "function"
    },
    {
      "inputs": [],
      "name": "uniswapV3Router",
      "outputs": [
        {
          "internalType": "contract ISwapRouter",
          "name": "",
          "type": "address"
        }
      ],
      "stateMutability": "view",
      "type": "function"
    }
  ],
  "transactionHash": "0xdeab72625fb2d474dcbe240af09290e45170db3721d93d2ae254e7a853d0c6de",
  "args": [
    "0x13f4EA83D0bd40E75C8222255bc855a974568Dd4"
  ],
  "numDeployments": 1,
  "solcInputHash": "e9f70ebf6238e258467e7d4155eb3b48",
  "bytecode": "0x60a03461007a57601f61065f38819003918201601f19168301916001600160401b0383118484101761007f5780849260209460405283398101031261007a57516001600160a01b0381169081900361007a576080526040516105c990816100968239608051818181610164015281816102dd01526104ea0152f35b600080fd5b634e487b7160e01b600052604160045260246000fdfe608080604052600436101561001357600080fd5b60003560e01c9081632c76d7a6146104d7575063a2c554d31461003557600080fd5b60803660031901126103ec576024356001600160a01b03811690036103ec576044356001600160a01b03811690036103ec5767ffffffffffffffff606435116103ec573660236064350112156103ec576064356004013567ffffffffffffffff81116103ec57366024826064350101116103ec576040516323b872dd60e01b60208201523360248201523060448201526004356064820152606481528060a081011067ffffffffffffffff60a0830111176104055760008160a0829301604052602081519101826024355af161010961053b565b816104a8575b501561047d57604090606435906064350103126103ec576024606435013562ffffff811681036103ec576024356001600160a01b03908116604435909116146104745760405163095ea7b360e01b60208201527f00000000000000000000000000000000000000000000000000000000000000006001600160a01b03166024820152600435604482015260009081906101b581606481015b03601f198101835282610519565b602081519101826024355af16101c961053b565b81610445575b501561041b57604051908161010081011067ffffffffffffffff610100840111176104055762ffffff90610100830160405260018060a01b0360243516835260018060a01b0360443516602084015216604082015230606082015242608082015260043560a08201526044606435013560c0820152600060e08201526040519063414bf38960e01b825260018060a01b03815116600483015260018060a01b03602082015116602483015262ffffff604082015116604483015260018060a01b0360608201511660648301526080810151608483015260a081015160a483015260c081015160c483015260e060018060a01b039101511660e482015260208161010481600060018060a01b037f0000000000000000000000000000000000000000000000000000000000000000165af19081156103f9576000916103c2575b505b60405163a9059cbb60e01b602082019081523360248301526044820183905260009182919061034281606481016101a7565b5190826044355af161035261053b565b81610393575b501561036957602090604051908152f35b60405162461bcd60e51b815260206004820152600260248201526114d560f21b6044820152606490fd5b80518015925082156103a8575b505038610358565b6103bb925060208091830101910161057b565b38806103a0565b90506020813d6020116103f1575b816103dd60209383610519565b810103126103ec57513861030e565b600080fd5b3d91506103d0565b6040513d6000823e3d90fd5b634e487b7160e01b600052604160045260246000fd5b60405162461bcd60e51b8152602060048201526002602482015261534160f01b6044820152606490fd5b805180159250821561045a575b5050386101cf565b61046d925060208091830101910161057b565b3880610452565b50600435610310565b60405162461bcd60e51b815260206004820152600360248201526229aa2360e91b6044820152606490fd5b80518015925082156104bd575b50503861010f565b6104d0925060208091830101910161057b565b38806104b5565b346103ec5760003660031901126103ec577f00000000000000000000000000000000000000000000000000000000000000006001600160a01b03168152602090f35b90601f8019910116810190811067ffffffffffffffff82111761040557604052565b3d15610576573d9067ffffffffffffffff8211610405576040519161056a601f8201601f191660200184610519565b82523d6000602084013e565b606090565b908160209103126103ec575180151581036103ec579056fea2646970667358221220f742e55d171eaa245c37f1e713af7de65e38d46a4799563c7dbd8ac0e3ed0d5664736f6c63430008130033",
  "devdoc": {
    "kind": "dev",
    "methods": {
      "swap(uint256,address,address,bytes)": {
        "details": "Decode the passed in data and re-encode it with the correct amountIn. This is because the amountIn is not known until the funds are transferred to this contract.",
        "params": {
          "_amountIn": "Amount of tokens to swap.",
          "_fromAsset": "Address of the token to swap from.",
          "_swapData": "Data to pass to the 1inch aggregator router.",
          "_toAsset": "Address of the token to swap to."
        }
      }
    },
    "title": "UniV3Swapper",
    "version": 1
  },
  "userdoc": {
    "kind": "user",
    "methods": {
      "swap(uint256,address,address,bytes)": {
        "notice": "Swap the given amount of tokens using 1inch."
      }
    },
    "notice": "Swapper contract for UniswapV3 swaps.",
    "version": 1
  },
  "storageLayout": {
    "storage": [],
    "types": null
  }
}