{
  "address": "0x29fF6FA6aD04d6E8b420CC45C40ffFF671A36649",
  "abi": [
    {
      "inputs": [
        {
          "internalType": "address",
          "name": "_connext",
          "type": "address"
        }
      ],
      "stateMutability": "nonpayable",
      "type": "constructor"
    },
    {
      "anonymous": false,
      "inputs": [
        {
          "indexed": true,
          "internalType": "address",
          "name": "previousOwner",
          "type": "address"
        },
        {
          "indexed": true,
          "internalType": "address",
          "name": "newOwner",
          "type": "address"
        }
      ],
      "name": "OwnershipTransferStarted",
      "type": "event"
    },
    {
      "anonymous": false,
      "inputs": [
        {
          "indexed": true,
          "internalType": "address",
          "name": "previousOwner",
          "type": "address"
        },
        {
          "indexed": true,
          "internalType": "address",
          "name": "newOwner",
          "type": "address"
        }
      ],
      "name": "OwnershipTransferred",
      "type": "event"
    },
    {
      "inputs": [],
      "name": "acceptOwnership",
      "outputs": [],
      "stateMutability": "nonpayable",
      "type": "function"
    },
    {
      "inputs": [
        {
          "internalType": "address",
          "name": "_swapper",
          "type": "address"
        }
      ],
      "name": "addSwapper",
      "outputs": [],
      "stateMutability": "nonpayable",
      "type": "function"
    },
    {
      "inputs": [
        {
          "internalType": "address",
          "name": "",
          "type": "address"
        }
      ],
      "name": "allowedSwappers",
      "outputs": [
        {
          "internalType": "bool",
          "name": "",
          "type": "bool"
        }
      ],
      "stateMutability": "view",
      "type": "function"
    },
    {
      "inputs": [
        {
          "internalType": "address",
          "name": "_swapper",
          "type": "address"
        },
        {
          "internalType": "bytes",
          "name": "swapData",
          "type": "bytes"
        }
      ],
      "name": "directSwapperCall",
      "outputs": [
        {
          "internalType": "uint256",
          "name": "amountOut",
          "type": "uint256"
        }
      ],
      "stateMutability": "payable",
      "type": "function"
    },
    {
      "inputs": [
        {
          "internalType": "address",
          "name": "_swapper",
          "type": "address"
        },
        {
          "internalType": "uint256",
          "name": "_amountIn",
          "type": "uint256"
        },
        {
          "internalType": "address",
          "name": "_fromAsset",
          "type": "address"
        },
        {
          "internalType": "address",
          "name": "_toAsset",
          "type": "address"
        },
        {
          "internalType": "bytes",
          "name": "_swapData",
          "type": "bytes"
        }
      ],
      "name": "exactSwap",
      "outputs": [
        {
          "internalType": "uint256",
          "name": "amountOut",
          "type": "uint256"
        }
      ],
      "stateMutability": "payable",
      "type": "function"
    },
    {
      "inputs": [],
      "name": "owner",
      "outputs": [
        {
          "internalType": "address",
          "name": "",
          "type": "address"
        }
      ],
      "stateMutability": "view",
      "type": "function"
    },
    {
      "inputs": [],
      "name": "pendingOwner",
      "outputs": [
        {
          "internalType": "address",
          "name": "",
          "type": "address"
        }
      ],
      "stateMutability": "view",
      "type": "function"
    },
    {
      "inputs": [
        {
          "internalType": "address",
          "name": "_swapper",
          "type": "address"
        }
      ],
      "name": "removeSwapper",
      "outputs": [],
      "stateMutability": "nonpayable",
      "type": "function"
    },
    {
      "inputs": [],
      "name": "renounceOwnership",
      "outputs": [],
      "stateMutability": "nonpayable",
      "type": "function"
    },
    {
      "inputs": [
        {
          "internalType": "address",
          "name": "_fromAsset",
          "type": "address"
        },
        {
          "internalType": "address",
          "name": "_toAsset",
          "type": "address"
        },
        {
          "internalType": "uint256",
          "name": "_amountIn",
          "type": "uint256"
        },
        {
          "internalType": "address",
          "name": "_swapper",
          "type": "address"
        },
        {
          "internalType": "bytes",
          "name": "_swapData",
          "type": "bytes"
        },
        {
          "internalType": "uint32",
          "name": "_destination",
          "type": "uint32"
        },
        {
          "internalType": "address",
          "name": "_to",
          "type": "address"
        },
        {
          "internalType": "address",
          "name": "_delegate",
          "type": "address"
        },
        {
          "internalType": "uint256",
          "name": "_slippage",
          "type": "uint256"
        },
        {
          "internalType": "bytes",
          "name": "_callData",
          "type": "bytes"
        },
        {
          "internalType": "uint256",
          "name": "_relayerFee",
          "type": "uint256"
        }
      ],
      "name": "swapAndXCall",
      "outputs": [],
      "stateMutability": "payable",
      "type": "function"
    },
    {
      "inputs": [
        {
          "internalType": "address",
          "name": "_fromAsset",
          "type": "address"
        },
        {
          "internalType": "address",
          "name": "_toAsset",
          "type": "address"
        },
        {
          "internalType": "uint256",
          "name": "_amountIn",
          "type": "uint256"
        },
        {
          "internalType": "address",
          "name": "_swapper",
          "type": "address"
        },
        {
          "internalType": "bytes",
          "name": "_swapData",
          "type": "bytes"
        },
        {
          "internalType": "uint32",
          "name": "_destination",
          "type": "uint32"
        },
        {
          "internalType": "address",
          "name": "_to",
          "type": "address"
        },
        {
          "internalType": "address",
          "name": "_delegate",
          "type": "address"
        },
        {
          "internalType": "uint256",
          "name": "_slippage",
          "type": "uint256"
        },
        {
          "internalType": "bytes",
          "name": "_callData",
          "type": "bytes"
        }
      ],
      "name": "swapAndXCall",
      "outputs": [],
      "stateMutability": "payable",
      "type": "function"
    },
    {
      "inputs": [
        {
          "internalType": "address",
          "name": "newOwner",
          "type": "address"
        }
      ],
      "name": "transferOwnership",
      "outputs": [],
      "stateMutability": "nonpayable",
      "type": "function"
    },
    {
      "inputs": [],
      "name": "uniswapSwapRouter",
      "outputs": [
        {
          "internalType": "address",
          "name": "",
          "type": "address"
        }
      ],
      "stateMutability": "view",
      "type": "function"
    },
    {
      "stateMutability": "payable",
      "type": "receive"
    }
  ],
  "transactionHash": "0x56635a2a04279d1d4a51cf753a42e578606899783c8548bee0a597e53699268c",
  "args": [
    "0x5bB83e95f63217CDa6aE3D181BA580Ef377D2109"
  ],
  "numDeployments": 1,
  "solcInputHash": "9f66c88f93cf4c3d4622bf6dd049af95",
  "bytecode": "0x60a0346100f657601f6113b638819003918201601f19168301916001600160401b038311848410176100fb578084926020946040528339810103126100f657516001600160a01b0390818116908190036100f65760018060a01b031980600154166001556000805433838216178255604051943391167f8be0079c531659141344cd1fd0a4f28419497f9722a3daafe3b4186f6b6457e08380a36001604073e592427a0aece92de3edee1f18e0157c05861564928360805230815260026020528181209360ff199484868254161790558152209182541617905560035416176003556112a490816101128239608051816105440152f35b600080fd5b634e487b7160e01b600052604160045260246000fdfe604060a0815260048036101561001f575b5050361561001d57600080fd5b005b600091823560e01c9182630c949d49146106fa5782632bb679641461057357826336f7d9f81461052f5782633f2d4131146104ef578263715018a61461048a57826379ba5097146103c65782638da5cb5b1461039e5782638ff1ed9714610360578263993850061461031d578263a0d70102146101cc578263defc22481461015a57508163e30c39781461012d575063f2fde38b146100be5780610010565b3461012a57602036600319011261012a576100d7610847565b6100df6108fb565b600180546001600160a01b0319166001600160a01b0392831690811790915582549091167f38d16b8cac22d99fc7c124b9cd0de2d3fa1faef420bfe791d8c362d765e227008380a380f35b80fd5b90503461015657816003193601126101565760015490516001600160a01b039091168152602090f35b5080fd5b908360a036600319011261012a57610170610847565b604435939091906001600160a01b03851685036101565761018f610878565b916084359067ffffffffffffffff821161012a5750916101b96101c59492602097943691016108ba565b93909260243590610fac565b9051908152f35b90838160031936011261012a576101e1610847565b67ffffffffffffffff906024358281116103195761020290369087016108ba565b9561020c87610cfb565b9061021987519283610976565b878252602097888301933682820111610315578188928b9287378401015286519485880190811186821017610302578752601885527f216469726563745377617070657243616c6c4661696c65640000000000000000888601523447106102b05750846102989493928192519034855af1610292610d17565b9161119a565b90838280518101031261012a57508201519051908152f35b865162461bcd60e51b8152908101889052602660248201527f416464726573733a20696e73756666696369656e742062616c616e636520666f6044820152651c8818d85b1b60d21b6064820152608490fd5b634e487b7160e01b875260418252602487fd5b8780fd5b8380fd5b83823461015657602036600319011261015657610338610847565b6103406108fb565b6001600160a01b0316825260026020528120805460ff1916600117905580f35b8382346101565760203660031901126101565760209160ff9082906001600160a01b0361038b610847565b1681526002855220541690519015158152f35b838234610156578160031936011261015657905490516001600160a01b039091168152602090f35b915034610486578260031936011261048657600154916001600160a01b039133838516036104315750506001600160a01b031991821660015582543392811683178455167f8be0079c531659141344cd1fd0a4f28419497f9722a3daafe3b4186f6b6457e08380a380f35b906020608492519162461bcd60e51b8352820152602960248201527f4f776e61626c6532537465703a2063616c6c6572206973206e6f7420746865206044820152683732bb9037bbb732b960b91b6064820152fd5b8280fd5b833461012a578060031936011261012a576104a36108fb565b600180546001600160a01b03199081169091558154908116825581906001600160a01b03167f8be0079c531659141344cd1fd0a4f28419497f9722a3daafe3b4186f6b6457e08280a380f35b8382346101565760203660031901126101565761050a610847565b6105126108fb565b6001600160a01b0316825260026020528120805460ff1916905580f35b838234610156578160031936011261015657517f00000000000000000000000000000000000000000000000000000000000000006001600160a01b03168152602090f35b9150610140366003190112610486578261058b610847565b92610594610862565b61059c610878565b9167ffffffffffffffff6084358181116106f6576105bd90369084016108ba565b90976105c76108e8565b926105d061088e565b966105d96108a4565b91610124359081116106f2576105f290369088016108ba565b6001600160a01b039c8d8616159b50919590948d939092908c156106de5761061e93506044358b610e20565b915b600354821699156106d6578161063860443534610953565b985b8c519d8e9b8c9a8b9a6345560b5d60e11b8c5263ffffffff16908b015216602489015216604487015216606485015260848401526101043560a484015260c4830160e0905260e483019061068d926109ae565b03915a94602095f19081156106cd57506106a5575080f35b602090813d81116106c6575b6106bb8183610976565b8101031261012a5780f35b503d6106b1565b513d84823e3d90fd5b81349861063a565b6106ec938b60443591610a40565b91610620565b8980fd5b8580fd5b915061016036600319011261048657610711610847565b610719610862565b9260443593610726610878565b94866084359667ffffffffffffffff978881116104865761074a90369087016108ba565b9390986107556108e8565b9261075e61088e565b9a6107676108a4565b97610124359384116108435760209a63ffffffff9861078c8c61081a973691016108ba565b94909561014435988560018060a01b0380608052861615600014610834576107b49550610e20565b985b6107c786608051600354169b610953565b918d519e8f9c8d9b8c9a6393f18ac560e01b8c5216908a01526080511660248901526080511660448801526080511660648701526084860152610104803560a487015261010060c48701528501916109ae565b9060e483015203925af19081156106cd57506106a5575080f35b61083d95610a40565b986107b6565b8680fd5b600435906001600160a01b038216820361085d57565b600080fd5b602435906001600160a01b038216820361085d57565b606435906001600160a01b038216820361085d57565b60c435906001600160a01b038216820361085d57565b60e435906001600160a01b038216820361085d57565b9181601f8401121561085d5782359167ffffffffffffffff831161085d576020838186019501011161085d57565b60a4359063ffffffff8216820361085d57565b6000546001600160a01b0316330361090f57565b606460405162461bcd60e51b815260206004820152602060248201527f4f776e61626c653a2063616c6c6572206973206e6f7420746865206f776e65726044820152fd5b9190820391821161096057565b634e487b7160e01b600052601160045260246000fd5b90601f8019910116810190811067ffffffffffffffff82111761099857604052565b634e487b7160e01b600052604160045260246000fd5b908060209392818452848401376000828201840152601f01601f1916010190565b156109d657565b60405162461bcd60e51b815260206004820152601b60248201527f53776170416e645843616c6c3a207a65726f20737761707065722100000000006044820152606490fd5b6001600160a01b039091168152604060208201819052610a3d939101916109ae565b90565b95949190936040928351916020958684016323b872dd60e01b81523360248601523060448601528560648601526064855260a085019480861067ffffffffffffffff871117610998578b958852600095869283809351925af1610aa1610d17565b81610ccb575b5015610ca1576001600160a01b0399888b1695818c16808814610c9557610ad18d851615156109cf565b8851636eb1769f60e11b81523060048201526001600160a01b0385166024820152908a90829060449082905afa908115610c8b57908a95949392918891610c54575b5090839110610c44575b5050610b3c8751948593849363506b808160e11b855260048501610a1b565b038185305af1908115610c3a578291610c0d575b50965b82610b61575b505050505050565b6003548451636eb1769f60e11b815230600482015291166001600160a01b03811660248301529490928190849081806044810103915afa938415610c02575090879392918193610bce575b50505010610bbe575b80808080610b59565b610bc791610d5f565b3880610bb5565b919350915082813d8111610bfb575b610be78183610976565b8101031261012a5750849051388080610bac565b503d610bdd565b51913d9150823e3d90fd5b90508481813d8311610c33575b610c248183610976565b81010312610156575138610b50565b503d610c1a565b84513d84823e3d90fd5b610c4d91610d5f565b3881610b1d565b8681939495969792503d8311610c84575b610c6f8183610976565b81010312610843575189949392919083610b13565b503d610c65565b89513d89823e3d90fd5b50935050505096610b53565b855162461bcd60e51b815260048101889052600360248201526229aa2360e91b6044820152606490fd5b80518015925089908315610ce3575b50505038610aa7565b610cf39350820181019101610d47565b388881610cda565b67ffffffffffffffff811161099857601f01601f191660200190565b3d15610d42573d90610d2882610cfb565b91610d366040519384610976565b82523d6000602084013e565b606090565b9081602091031261085d5751801515810361085d5790565b60405190602082019263095ea7b360e01b845260018060a01b03166024830152600019604483015260448252608082019282841067ffffffffffffffff851117610998576000809493819460405251925af1610db9610d17565b81610df1575b5015610dc757565b60405162461bcd60e51b8152602060048201526002602482015261534160f01b6044820152606490fd5b8051801592508215610e06575b505038610dbf565b610e199250602080918301019101610d47565b3880610dfe565b919492939093843410610f5b576001600160a01b0394838616918215610f505787610e5488610e719798999a1615156109cf565b60405163506b808160e11b81529586958693849360048501610a1b565b036020958693305af1918215610f1557600092610f21575b50600354604051636eb1769f60e11b815230600482015296166001600160a01b0381166024880152919591928692918190839060449082905afa908115610f1557600091610ee9575b50905010610ede575050565b610ee791610d5f565b565b82813d8311610f0e575b610efd8183610976565b8101031261012a5750518038610ed2565b503d610ef3565b6040513d6000823e3d90fd5b90918382813d8311610f49575b610f388183610976565b8101031261012a5750519038610e89565b503d610f2e565b509450505050915090565b60405162461bcd60e51b8152602060048201526024808201527f53776170416e645843616c6c3a206d73672e76616c756520213d205f616d6f75604482015263373a24b760e11b6064820152608490fd5b92949060018060a01b03808516916000958387526020956002875260409960ff8b8a2054161561116457841693811691848314611156578261106c575050509085859493926110228a51998a968795869463f6b13d3f60e01b8652600486015260248501526060604485015260648401916109ae565b03925af1938415610c025750819361103b575b50505090565b9091809350813d8311611065575b6110538183610976565b8101031261012a575051388080611035565b503d611049565b8a51636eb1769f60e11b81523060048201526001600160a01b0382166024820152969994969294928881604481895afa90811561114c5791899897969593918b95938691611109575b509084611022949392106110f9575b50508b519a8b978896879563a2c554d360e01b87526004870152602486015260448501526080606485015260848401916109ae565b61110291610d5f565b38806110c4565b92949697989980929496508391503d8311611145575b6111298183610976565b810103126106f2575188979695948a94909390929091846110b5565b503d61111f565b8c513d8c823e3d90fd5b505050965050505050505090565b8a5162461bcd60e51b815260048101899052600f60248201526e10b0b63637bbb2b229bbb0b83832b960891b6044820152606490fd5b919290156111fc57508151156111ae575090565b3b156111b75790565b60405162461bcd60e51b815260206004820152601d60248201527f416464726573733a2063616c6c20746f206e6f6e2d636f6e74726163740000006044820152606490fd5b82519091501561120f5750805190602001fd5b6040519062461bcd60e51b82528160208060048301528251908160248401526000935b828510611255575050604492506000838284010152601f80199101168101030190fd5b848101820151868601604401529381019385935061123256fea26469706673582212205482e9844b2cb03496363d4c1d02c83dbf1954ad861f34156d2acad6f4d9cb1764736f6c63430008130033",
  "devdoc": {
    "kind": "dev",
    "methods": {
      "acceptOwnership()": {
        "details": "The new owner accepts the ownership transfer."
      },
      "addSwapper(address)": {
        "params": {
          "_swapper": "Address of the swapper to add."
        }
      },
      "directSwapperCall(address,bytes)": {
        "params": {
          "_swapper": "Address of the swapper to use.",
          "swapData": "Data to pass to the swapper. This data is encoded for a particular swap router."
        }
      },
      "exactSwap(address,uint256,address,address,bytes)": {
        "params": {
          "_amountIn": "Amount of tokens to swap.",
          "_fromAsset": "Address of the token to swap from.",
          "_swapData": "Data to pass to the swapper. This data is encoded for a particular swap router, usually given by an API. The swapper will decode the data and re-encode it with the new amountIn.",
          "_swapper": "Address of the swapper to use.",
          "_toAsset": "Address of the token to swap to."
        }
      },
      "owner()": {
        "details": "Returns the address of the current owner."
      },
      "pendingOwner()": {
        "details": "Returns the address of the pending owner."
      },
      "removeSwapper(address)": {
        "params": {
          "_swapper": "Address of the swapper to remove."
        }
      },
      "renounceOwnership()": {
        "details": "Leaves the contract without owner. It will not be possible to call `onlyOwner` functions anymore. Can only be called by the current owner. NOTE: Renouncing ownership will leave the contract without an owner, thereby removing any functionality that is only available to the owner."
      },
      "swapAndXCall(address,address,uint256,address,bytes,uint32,address,address,uint256,bytes)": {
        "details": "Data for the swap is generated offchain to call to the appropriate swapper contract Function is payable since it uses the relayer fee in native asset",
        "params": {
          "_amountIn": "Amount of the asset to swap from",
          "_callData": "Calldata to call the destination with",
          "_delegate": "Delegate address",
          "_destination": "Destination of the xcall",
          "_fromAsset": "Address of the asset to swap from",
          "_slippage": "Total slippage amount accepted",
          "_swapData": "Data to call the swapper contract with",
          "_swapper": "Address of the swapper contract",
          "_to": "Address to send the asset and call with the calldata on the destination",
          "_toAsset": "Address of the asset to swap to"
        }
      },
      "swapAndXCall(address,address,uint256,address,bytes,uint32,address,address,uint256,bytes,uint256)": {
        "details": "Data for the swap is generated offchain to call to the appropriate swapper contract Pays relayer fee from the input asset",
        "params": {
          "_amountIn": "Amount of the asset to swap from",
          "_callData": "Calldata to call the destination with",
          "_delegate": "Delegate address",
          "_destination": "Destination of the xcall",
          "_fromAsset": "Address of the asset to swap from",
          "_relayerFee": "Relayer fee to pay in the input asset",
          "_slippage": "Total slippage amount accepted",
          "_swapData": "Data to call the swapper contract with",
          "_swapper": "Address of the swapper contract",
          "_to": "Address to send the asset and call with the calldata on the destination",
          "_toAsset": "Address of the asset to swap to"
        }
      },
      "transferOwnership(address)": {
        "details": "Starts the ownership transfer of the contract to a new account. Replaces the pending transfer if there is one. Can only be called by the current owner."
      }
    },
    "version": 1
  },
  "userdoc": {
    "kind": "user",
    "methods": {
      "addSwapper(address)": {
        "notice": "Add a swapper to the list of allowed swappers."
      },
      "directSwapperCall(address,bytes)": {
        "notice": "Swap an exact amount of tokens for another token. Uses a direct call to the swapper to allow easy swaps on the source side where the amount does not need to be changed."
      },
      "exactSwap(address,uint256,address,address,bytes)": {
        "notice": "Swap an exact amount of tokens for another token."
      },
      "removeSwapper(address)": {
        "notice": "Remove a swapper from the list of allowed swappers."
      },
      "swapAndXCall(address,address,uint256,address,bytes,uint32,address,address,uint256,bytes)": {
        "notice": "Calls a swapper contract and then calls xcall on connext"
      },
      "swapAndXCall(address,address,uint256,address,bytes,uint32,address,address,uint256,bytes,uint256)": {
        "notice": "Calls a swapper contract and then calls xcall on connext"
      }
    },
    "version": 1
  },
  "storageLayout": {
    "storage": [
      {
        "astId": 1334,
        "contract": "contracts/origin/Swap/SwapAndXCall.sol:SwapAndXCall",
        "label": "_owner",
        "offset": 0,
        "slot": "0",
        "type": "t_address"
      },
      {
        "astId": 1447,
        "contract": "contracts/origin/Swap/SwapAndXCall.sol:SwapAndXCall",
        "label": "_pendingOwner",
        "offset": 0,
        "slot": "1",
        "type": "t_address"
      },
      {
        "astId": 4944,
        "contract": "contracts/origin/Swap/SwapAndXCall.sol:SwapAndXCall",
        "label": "allowedSwappers",
        "offset": 0,
        "slot": "2",
        "type": "t_mapping(t_address,t_bool)"
      },
      {
        "astId": 4050,
        "contract": "contracts/origin/Swap/SwapAndXCall.sol:SwapAndXCall",
        "label": "connext",
        "offset": 0,
        "slot": "3",
        "type": "t_contract(IConnext)10101"
      }
    ],
    "types": {
      "t_address": {
        "encoding": "inplace",
        "label": "address",
        "numberOfBytes": "20"
      },
      "t_bool": {
        "encoding": "inplace",
        "label": "bool",
        "numberOfBytes": "1"
      },
      "t_contract(IConnext)10101": {
        "encoding": "inplace",
        "label": "contract IConnext",
        "numberOfBytes": "20"
      },
      "t_mapping(t_address,t_bool)": {
        "encoding": "mapping",
        "key": "t_address",
        "label": "mapping(address => bool)",
        "numberOfBytes": "32",
        "value": "t_bool"
      }
    }
  }
}