{
  "address": "0x7b659eF70e18C01d88F305042ae916D235cb8648",
  "abi": [
    {
      "inputs": [
        {
          "internalType": "address",
          "name": "_uniV2Router",
          "type": "address"
        }
      ],
      "stateMutability": "nonpayable",
      "type": "constructor"
    },
    {
      "inputs": [
        {
          "internalType": "uint256",
          "name": "_amountIn",
          "type": "uint256"
        },
        {
          "internalType": "address",
          "name": "_fromAsset",
          "type": "address"
        },
        {
          "internalType": "address",
          "name": "_toAsset",
          "type": "address"
        },
        {
          "internalType": "bytes",
          "name": "_swapData",
          "type": "bytes"
        }
      ],
      "name": "swap",
      "outputs": [
        {
          "internalType": "uint256",
          "name": "amountOut",
          "type": "uint256"
        }
      ],
      "stateMutability": "nonpayable",
      "type": "function"
    },
    {
      "inputs": [
        {
          "internalType": "uint256",
          "name": "_amountIn",
          "type": "uint256"
        },
        {
          "internalType": "address",
          "name": "_toAsset",
          "type": "address"
        },
        {
          "internalType": "bytes",
          "name": "_swapData",
          "type": "bytes"
        }
      ],
      "name": "swapETH",
      "outputs": [
        {
          "internalType": "uint256",
          "name": "amountOut",
          "type": "uint256"
        }
      ],
      "stateMutability": "payable",
      "type": "function"
    },
    {
      "inputs": [],
      "name": "uniswapV2Router",
      "outputs": [
        {
          "internalType": "contract IUniswapV2Router02",
          "name": "",
          "type": "address"
        }
      ],
      "stateMutability": "view",
      "type": "function"
    }
  ],
  "transactionHash": "0x5051d3a373aade80e59a3f17421fb3ea0fce5701d5d35a8c854d19ad1abae80b",
  "args": [
    "0x1C232F01118CB8B424793ae03F870aa7D0ac7f77"
  ],
  "numDeployments": 1,
  "solcInputHash": "5baa44abeea841b29c26c38421b92a9b",
  "bytecode": "0x60a03461008e57601f610a4138819003918201601f19168301916001600160401b038311848410176100935780849260209460405283398101031261008e57516001600160a01b0381169081900361008e5760805260405161099790816100aa823960805181818160cb015281816103c70152818161046d01528181610511015281816105b801526107000152f35b600080fd5b634e487b7160e01b600052604160045260246000fdfe608080604052600436101561001357600080fd5b60003560e01c9081631694505e146106ed57508063a2c554d3146102cf5763f6b13d3f1461004057600080fd5b60603660031901126102795760043561005761072f565b67ffffffffffffffff60443581811161027957610078903690600401610745565b909380341061027e578491602095869181010312610279576001600160a01b039384169283156102015750604051916100b083610773565b60028352604036878501376040516315ab88c960e31b8152937f0000000000000000000000000000000000000000000000000000000000000000861692908786600481875afa80156101c65761014c9760009788926101d2575b50610114876107d0565b91169052610121856107f3565b52604051809681958294637ff36ab560e01b8452356004840152608060248401526084830190610893565b33604483015242606483015203925af19081156101c6576000916101a3575b508051600019810190811161018d5761018391610803565b515b604051908152f35b634e487b7160e01b600052601160045260246000fd5b6101c091503d806000833e6101b8818361078f565b810190610817565b3861016b565b6040513d6000823e3d90fd5b6101f39192508a3d8c116101fa575b6101eb818361078f565b8101906107b1565b903861010a565b503d6101e1565b925092505081604051918483019083821090821117610263576000809392818094819460405252335af1610233610909565b506101855760405162461bcd60e51b815260048101839052600360248201526253544560e81b6044820152606490fd5b634e487b7160e01b600052604160045260246000fd5b600080fd5b60405162461bcd60e51b8152602060048201526024808201527f556e695632537761707065723a206d73672e76616c756520213d205f616d6f75604482015263373a24b760e11b6064820152608490fd5b34610279576080366003190112610279576102e861072f565b6044356001600160a01b03811690036102795760643567ffffffffffffffff81116102795761031b903690600401610745565b90600091604051602081016323b872dd60e01b815233602483015230604483015260043560648301526064825260a082019082821067ffffffffffffffff831117610263576000928392604052519082885af1610376610909565b816106be575b5015610693578160209181010312610279576001600160a01b036044358116908416036103af575b602082604051908152f35b6040516315ab88c960e31b81529091506020816004817f00000000000000000000000000000000000000000000000000000000000000006001600160a01b03165afa9081156101c657600091610674575b506040519261040e84610773565b6002845260403660208601376001600160a01b03811661042d856107d0565b526044356001600160a01b03161591821561066b575b61044c856107f3565b6001600160a01b03918216905260405163095ea7b360e01b602082019081527f0000000000000000000000000000000000000000000000000000000000000000909216602482015260043560448083019190915281526080810192909167ffffffffffffffff841183851017610263576000809493819460405251925af16104d2610909565b8161063c575b5015610612576105895761050c9160009160405193849283926338ed173960e01b84524291339135600435600487016108d0565b0381837f00000000000000000000000000000000000000000000000000000000000000006001600160a01b03165af19081156101c65760009161056e575b505b805160001981019190821161018d5760209161056791610803565b51826103a4565b61058391503d806000833e6101b8818361078f565b8161054a565b6105b39160009160405193849283926318cbafe560e01b84524291339135600435600487016108d0565b0381837f00000000000000000000000000000000000000000000000000000000000000006001600160a01b03165af19081156101c6576000916105f7575b5061054c565b61060c91503d806000833e6101b8818361078f565b816105f1565b60405162461bcd60e51b8152602060048201526002602482015261534160f01b6044820152606490fd5b8051801592508215610651575b5050846104d8565b6106649250602080918301019101610949565b8480610649565b50604435610443565b61068d915060203d6020116101fa576101eb818361078f565b83610400565b60405162461bcd60e51b815260206004820152600360248201526229aa2360e91b6044820152606490fd5b80518015925082156106d3575b50508561037c565b6106e69250602080918301019101610949565b85806106cb565b34610279576000366003190112610279577f00000000000000000000000000000000000000000000000000000000000000006001600160a01b03168152602090f35b602435906001600160a01b038216820361027957565b9181601f840112156102795782359167ffffffffffffffff8311610279576020838186019501011161027957565b6060810190811067ffffffffffffffff82111761026357604052565b90601f8019910116810190811067ffffffffffffffff82111761026357604052565b9081602091031261027957516001600160a01b03811681036102795790565b8051156107dd5760200190565b634e487b7160e01b600052603260045260246000fd5b8051600110156107dd5760400190565b80518210156107dd5760209160051b010190565b90602090818382031261027957825167ffffffffffffffff93848211610279570181601f82011215610279578051938411610263578360051b90604051946108618584018761078f565b85528380860192820101928311610279578301905b828210610884575050505090565b81518152908301908301610876565b90815180825260208080930193019160005b8281106108b3575050505090565b83516001600160a01b0316855293810193928101926001016108a5565b91926080936108f592979695978452602084015260a0604084015260a0830190610893565b6001600160a01b0390951660608201520152565b3d15610944573d9067ffffffffffffffff82116102635760405191610938601f8201601f19166020018461078f565b82523d6000602084013e565b606090565b9081602091031261027957518015158103610279579056fea2646970667358221220dd6f7975e6495e8562f151d116723a491118f014cf7fc9312ad09fe7f71bac6164736f6c63430008130033",
  "devdoc": {
    "kind": "dev",
    "methods": {
      "swap(uint256,address,address,bytes)": {
        "details": "Decode the passed in data and re-encode it with the correct amountIn. This is because the amountIn is not known until the funds are transferred to this contract.",
        "params": {
          "_amountIn": "Amount of tokens to swap.",
          "_fromAsset": "Address of the token to swap from.",
          "_swapData": "Data to pass to the UniV2 router.",
          "_toAsset": "Address of the token to swap to."
        }
      },
      "swapETH(uint256,address,bytes)": {
        "details": "Decode the passed in data and re-encode it with the correct amountIn. This is because the amountIn is not known until the funds are transferred to this contract.",
        "params": {
          "_amountIn": "Amount of tokens to swap.",
          "_swapData": "Data to pass to the UniV2 router.",
          "_toAsset": "Address of the token to swap to."
        }
      }
    },
    "title": "UniV2Swapper",
    "version": 1
  },
  "userdoc": {
    "kind": "user",
    "methods": {
      "swap(uint256,address,address,bytes)": {
        "notice": "Swap the given amount of tokens using UniV2."
      },
      "swapETH(uint256,address,bytes)": {
        "notice": "Swap the given amount of ETH using UniV2."
      }
    },
    "notice": "Swapper contract for UniswapV2 swaps.",
    "version": 1
  },
  "storageLayout": {
    "storage": [],
    "types": null
  }
}