{
  "address": "0x3E64213564cc30107Beb81cd0DCEd3F18dF79B35",
  "abi": [
    {
      "inputs": [
        {
          "internalType": "address",
          "name": "_connext",
          "type": "address"
        }
      ],
      "stateMutability": "nonpayable",
      "type": "constructor"
    },
    {
      "inputs": [],
      "name": "connext",
      "outputs": [
        {
          "internalType": "contract IConnext",
          "name": "",
          "type": "address"
        }
      ],
      "stateMutability": "view",
      "type": "function"
    },
    {
      "inputs": [
        {
          "internalType": "address",
          "name": "_from",
          "type": "address"
        },
        {
          "internalType": "address",
          "name": "_to",
          "type": "address"
        },
        {
          "internalType": "uint256",
          "name": "_amount",
          "type": "uint256"
        },
        {
          "internalType": "uint32",
          "name": "_amountOfSwaps",
          "type": "uint32"
        },
        {
          "internalType": "uint32",
          "name": "_swapInterval",
          "type": "uint32"
        },
        {
          "internalType": "address",
          "name": "_owner",
          "type": "address"
        },
        {
          "components": [
            {
              "internalType": "address",
              "name": "operator",
              "type": "address"
            },
            {
              "internalType": "enum IDCAPermissionManager.Permission[]",
              "name": "permissions",
              "type": "uint8[]"
            }
          ],
          "internalType": "struct IDCAPermissionManager.PermissionSet[]",
          "name": "_permissions",
          "type": "tuple[]"
        }
      ],
      "name": "deposit",
      "outputs": [
        {
          "internalType": "uint256",
          "name": "_positionId",
          "type": "uint256"
        }
      ],
      "stateMutability": "nonpayable",
      "type": "function"
    },
    {
      "inputs": [
        {
          "internalType": "uint24",
          "name": "poolFee",
          "type": "uint24"
        },
        {
          "internalType": "uint256",
          "name": "amountOutMin",
          "type": "uint256"
        },
        {
          "internalType": "address",
          "name": "from",
          "type": "address"
        },
        {
          "internalType": "address",
          "name": "to",
          "type": "address"
        },
        {
          "internalType": "uint32",
          "name": "amountOfSwaps",
          "type": "uint32"
        },
        {
          "internalType": "uint32",
          "name": "swapInterval",
          "type": "uint32"
        },
        {
          "internalType": "address",
          "name": "owner",
          "type": "address"
        },
        {
          "components": [
            {
              "internalType": "address",
              "name": "operator",
              "type": "address"
            },
            {
              "internalType": "enum IDCAPermissionManager.Permission[]",
              "name": "permissions",
              "type": "uint8[]"
            }
          ],
          "internalType": "struct IDCAPermissionManager.PermissionSet[]",
          "name": "permissions",
          "type": "tuple[]"
        }
      ],
      "name": "encode",
      "outputs": [
        {
          "internalType": "bytes",
          "name": "",
          "type": "bytes"
        }
      ],
      "stateMutability": "pure",
      "type": "function"
    },
    {
      "inputs": [],
      "name": "hub",
      "outputs": [
        {
          "internalType": "contract IDCAHub",
          "name": "",
          "type": "address"
        }
      ],
      "stateMutability": "view",
      "type": "function"
    },
    {
      "inputs": [
        {
          "internalType": "address",
          "name": "fromAsset",
          "type": "address"
        },
        {
          "internalType": "address",
          "name": "toAsset",
          "type": "address"
        },
        {
          "internalType": "uint24",
          "name": "poolFee",
          "type": "uint24"
        },
        {
          "internalType": "uint256",
          "name": "amountIn",
          "type": "uint256"
        },
        {
          "internalType": "uint256",
          "name": "amountOutMin",
          "type": "uint256"
        }
      ],
      "name": "swap",
      "outputs": [
        {
          "internalType": "uint256",
          "name": "amountOut",
          "type": "uint256"
        }
      ],
      "stateMutability": "nonpayable",
      "type": "function"
    },
    {
      "inputs": [],
      "name": "swapRouter",
      "outputs": [
        {
          "internalType": "contract ISwapRouter",
          "name": "",
          "type": "address"
        }
      ],
      "stateMutability": "view",
      "type": "function"
    },
    {
      "inputs": [
        {
          "internalType": "bytes32",
          "name": "_transferId",
          "type": "bytes32"
        },
        {
          "internalType": "uint256",
          "name": "_amount",
          "type": "uint256"
        },
        {
          "internalType": "address",
          "name": "_asset",
          "type": "address"
        },
        {
          "internalType": "address",
          "name": "_originSender",
          "type": "address"
        },
        {
          "internalType": "uint32",
          "name": "_origin",
          "type": "uint32"
        },
        {
          "internalType": "bytes",
          "name": "_callData",
          "type": "bytes"
        }
      ],
      "name": "xReceive",
      "outputs": [
        {
          "internalType": "bytes",
          "name": "",
          "type": "bytes"
        }
      ],
      "stateMutability": "nonpayable",
      "type": "function"
    },
    {
      "stateMutability": "payable",
      "type": "receive"
    }
  ],
  "transactionHash": "0xac9cd73a400506a2389b14033bb7c0ebeb59f1a2c0d18045c16e9bf217d8a8d2",
  "args": [
    "0x11984dc4465481512eb5b777E44061C158CF2259"
  ],
  "numDeployments": 1,
  "solcInputHash": "a2eb27175a6ecc9d6a6410ce4445758c",
  "bytecode": "0x60e060405273a5adc5484f9997fbf7d405b9aa62a7d88883c34573ffffffffffffffffffffffffffffffffffffffff1660809073ffffffffffffffffffffffffffffffffffffffff1681525073e592427a0aece92de3edee1f18e0157c0586156473ffffffffffffffffffffffffffffffffffffffff1660a09073ffffffffffffffffffffffffffffffffffffffff168152503480156200009f57600080fd5b5060405162001be238038062001be28339818101604052810190620000c591906200016a565b8073ffffffffffffffffffffffffffffffffffffffff1660c08173ffffffffffffffffffffffffffffffffffffffff1681525050506200019c565b600080fd5b600073ffffffffffffffffffffffffffffffffffffffff82169050919050565b6000620001328262000105565b9050919050565b620001448162000125565b81146200015057600080fd5b50565b600081519050620001648162000139565b92915050565b60006020828403121562000183576200018262000100565b5b6000620001938482850162000153565b91505092915050565b60805160a05160c0516119fa620001e86000396000610544015260008181610221015281816102e401526104e20152600081816101f7015281816103aa015261042d01526119fa6000f3fe6080604052600436106100745760003560e01c8063c31c9c071161004e578063c31c9c0714610125578063c7c3c90514610150578063de4b05481461018d578063fd614f41146101b85761007b565b8063365a86fc146100805780633bf237d5146100ab5780636b29e1bd146100e85761007b565b3661007b57005b600080fd5b34801561008c57600080fd5b506100956101f5565b6040516100a2919061090c565b60405180910390f35b3480156100b757600080fd5b506100d260048036038101906100cd91906109ea565b610219565b6040516100df9190610a74565b60405180910390f35b3480156100f457600080fd5b5061010f600480360381019061010a9190610da0565b61038a565b60405161011c9190610a74565b60405180910390f35b34801561013157600080fd5b5061013a6104e0565b6040516101479190610e7f565b60405180910390f35b34801561015c57600080fd5b5061017760048036038101906101729190610e9a565b610504565b6040516101849190610feb565b60405180910390f35b34801561019957600080fd5b506101a2610542565b6040516101af919061102e565b60405180910390f35b3480156101c457600080fd5b506101df60048036038101906101da91906110da565b610566565b6040516101ec9190610feb565b60405180910390f35b7f000000000000000000000000000000000000000000000000000000000000000081565b6000610246867f0000000000000000000000000000000000000000000000000000000000000000856106ef565b60006040518061010001604052808873ffffffffffffffffffffffffffffffffffffffff1681526020018773ffffffffffffffffffffffffffffffffffffffff1681526020018662ffffff1681526020013073ffffffffffffffffffffffffffffffffffffffff168152602001428152602001858152602001848152602001600073ffffffffffffffffffffffffffffffffffffffff1681525090507f000000000000000000000000000000000000000000000000000000000000000073ffffffffffffffffffffffffffffffffffffffff1663414bf389826040518263ffffffff1660e01b815260040161033b9190611267565b6020604051808303816000875af115801561035a573d6000803e3d6000fd5b505050506040513d601f19601f8201168201806040525081019061037e9190611298565b91505095945050505050565b60008773ffffffffffffffffffffffffffffffffffffffff1663095ea7b37f0000000000000000000000000000000000000000000000000000000000000000886040518363ffffffff1660e01b81526004016103e79291906112d4565b6020604051808303816000875af1158015610406573d6000803e3d6000fd5b505050506040513d601f19601f8201168201806040525081019061042a9190611335565b507f000000000000000000000000000000000000000000000000000000000000000073ffffffffffffffffffffffffffffffffffffffff16636b29e1bd898989898989896040518863ffffffff1660e01b81526004016104909796959493929190611596565b6020604051808303816000875af11580156104af573d6000803e3d6000fd5b505050506040513d601f19601f820116820180604052508101906104d39190611298565b9050979650505050505050565b7f000000000000000000000000000000000000000000000000000000000000000081565b6060888888888888888860405160200161052598979695949392919061161b565b604051602081830303815290604052905098975050505050505050565b7f000000000000000000000000000000000000000000000000000000000000000081565b606060008790506000806000806000806000806105838c8c610844565b97509750975097509750975097509750600089116105d6576040517f08c379a00000000000000000000000000000000000000000000000000000000081526004016105cd906116fd565b60405180910390fd5b60008711610619576040517f08c379a000000000000000000000000000000000000000000000000000000000815260040161061090611769565b60405180910390fd5b600073ffffffffffffffffffffffffffffffffffffffff168673ffffffffffffffffffffffffffffffffffffffff1603610688576040517f08c379a000000000000000000000000000000000000000000000000000000000815260040161067f906117d5565b60405180910390fd5b8e73ffffffffffffffffffffffffffffffffffffffff168673ffffffffffffffffffffffffffffffffffffffff16146106cb576106c88f878a8c8b610219565b98505b6106da86868b8787878761038a565b50505050505050505050979650505050505050565b6000808473ffffffffffffffffffffffffffffffffffffffff1663095ea7b360e01b85856040516024016107249291906112d4565b604051602081830303815290604052907bffffffffffffffffffffffffffffffffffffffffffffffffffffffff19166020820180517bffffffffffffffffffffffffffffffffffffffffffffffffffffffff838183161783525050505060405161078e9190611831565b6000604051808303816000865af19150503d80600081146107cb576040519150601f19603f3d011682016040523d82523d6000602084013e6107d0565b606091505b50915091508180156107fe57506000815114806107fd5750808060200190518101906107fc9190611335565b5b5b61083d576040517f08c379a000000000000000000000000000000000000000000000000000000000815260040161083490611894565b60405180910390fd5b5050505050565b60008060008060008060006060898981019061086091906118f2565b809850819950829a50839b50849c50859d50869e50879f5050505050505050509295985092959890939650565b600073ffffffffffffffffffffffffffffffffffffffff82169050919050565b6000819050919050565b60006108d26108cd6108c88461088d565b6108ad565b61088d565b9050919050565b60006108e4826108b7565b9050919050565b60006108f6826108d9565b9050919050565b610906816108eb565b82525050565b600060208201905061092160008301846108fd565b92915050565b6000604051905090565b600080fd5b600080fd5b60006109468261088d565b9050919050565b6109568161093b565b811461096157600080fd5b50565b6000813590506109738161094d565b92915050565b600062ffffff82169050919050565b61099181610979565b811461099c57600080fd5b50565b6000813590506109ae81610988565b92915050565b6000819050919050565b6109c7816109b4565b81146109d257600080fd5b50565b6000813590506109e4816109be565b92915050565b600080600080600060a08688031215610a0657610a05610931565b5b6000610a1488828901610964565b9550506020610a2588828901610964565b9450506040610a368882890161099f565b9350506060610a47888289016109d5565b9250506080610a58888289016109d5565b9150509295509295909350565b610a6e816109b4565b82525050565b6000602082019050610a896000830184610a65565b92915050565b600063ffffffff82169050919050565b610aa881610a8f565b8114610ab357600080fd5b50565b600081359050610ac581610a9f565b92915050565b600080fd5b6000601f19601f8301169050919050565b7f4e487b7100000000000000000000000000000000000000000000000000000000600052604160045260246000fd5b610b1982610ad0565b810181811067ffffffffffffffff82111715610b3857610b37610ae1565b5b80604052505050565b6000610b4b610927565b9050610b578282610b10565b919050565b600067ffffffffffffffff821115610b7757610b76610ae1565b5b602082029050602081019050919050565b600080fd5b600080fd5b600080fd5b600067ffffffffffffffff821115610bb257610bb1610ae1565b5b602082029050602081019050919050565b60048110610bd057600080fd5b50565b600081359050610be281610bc3565b92915050565b6000610bfb610bf684610b97565b610b41565b90508083825260208201905060208402830185811115610c1e57610c1d610b88565b5b835b81811015610c475780610c338882610bd3565b845260208401935050602081019050610c20565b5050509392505050565b600082601f830112610c6657610c65610acb565b5b8135610c76848260208601610be8565b91505092915050565b600060408284031215610c9557610c94610b8d565b5b610c9f6040610b41565b90506000610caf84828501610964565b600083015250602082013567ffffffffffffffff811115610cd357610cd2610b92565b5b610cdf84828501610c51565b60208301525092915050565b6000610cfe610cf984610b5c565b610b41565b90508083825260208201905060208402830185811115610d2157610d20610b88565b5b835b81811015610d6857803567ffffffffffffffff811115610d4657610d45610acb565b5b808601610d538982610c7f565b85526020850194505050602081019050610d23565b5050509392505050565b600082601f830112610d8757610d86610acb565b5b8135610d97848260208601610ceb565b91505092915050565b600080600080600080600060e0888a031215610dbf57610dbe610931565b5b6000610dcd8a828b01610964565b9750506020610dde8a828b01610964565b9650506040610def8a828b016109d5565b9550506060610e008a828b01610ab6565b9450506080610e118a828b01610ab6565b93505060a0610e228a828b01610964565b92505060c088013567ffffffffffffffff811115610e4357610e42610936565b5b610e4f8a828b01610d72565b91505092959891949750929550565b6000610e69826108d9565b9050919050565b610e7981610e5e565b82525050565b6000602082019050610e946000830184610e70565b92915050565b600080600080600080600080610100898b031215610ebb57610eba610931565b5b6000610ec98b828c0161099f565b9850506020610eda8b828c016109d5565b9750506040610eeb8b828c01610964565b9650506060610efc8b828c01610964565b9550506080610f0d8b828c01610ab6565b94505060a0610f1e8b828c01610ab6565b93505060c0610f2f8b828c01610964565b92505060e089013567ffffffffffffffff811115610f5057610f4f610936565b5b610f5c8b828c01610d72565b9150509295985092959890939650565b600081519050919050565b600082825260208201905092915050565b60005b83811015610fa6578082015181840152602081019050610f8b565b60008484015250505050565b6000610fbd82610f6c565b610fc78185610f77565b9350610fd7818560208601610f88565b610fe081610ad0565b840191505092915050565b600060208201905081810360008301526110058184610fb2565b905092915050565b6000611018826108d9565b9050919050565b6110288161100d565b82525050565b6000602082019050611043600083018461101f565b92915050565b6000819050919050565b61105c81611049565b811461106757600080fd5b50565b60008135905061107981611053565b92915050565b600080fd5b60008083601f84011261109a57611099610acb565b5b8235905067ffffffffffffffff8111156110b7576110b661107f565b5b6020830191508360018202830111156110d3576110d2610b88565b5b9250929050565b600080600080600080600060c0888a0312156110f9576110f8610931565b5b60006111078a828b0161106a565b97505060206111188a828b016109d5565b96505060406111298a828b01610964565b955050606061113a8a828b01610964565b945050608061114b8a828b01610ab6565b93505060a088013567ffffffffffffffff81111561116c5761116b610936565b5b6111788a828b01611084565b925092505092959891949750929550565b6111928161093b565b82525050565b6111a181610979565b82525050565b6111b0816109b4565b82525050565b6111bf8161088d565b82525050565b610100820160008201516111dc6000850182611189565b5060208201516111ef6020850182611189565b5060408201516112026040850182611198565b5060608201516112156060850182611189565b50608082015161122860808501826111a7565b5060a082015161123b60a08501826111a7565b5060c082015161124e60c08501826111a7565b5060e082015161126160e08501826111b6565b50505050565b60006101008201905061127d60008301846111c5565b92915050565b600081519050611292816109be565b92915050565b6000602082840312156112ae576112ad610931565b5b60006112bc84828501611283565b91505092915050565b6112ce8161093b565b82525050565b60006040820190506112e960008301856112c5565b6112f66020830184610a65565b9392505050565b60008115159050919050565b611312816112fd565b811461131d57600080fd5b50565b60008151905061132f81611309565b92915050565b60006020828403121561134b5761134a610931565b5b600061135984828501611320565b91505092915050565b61136b81610a8f565b82525050565b600081519050919050565b600082825260208201905092915050565b6000819050602082019050919050565b600081519050919050565b600082825260208201905092915050565b6000819050602082019050919050565b7f4e487b7100000000000000000000000000000000000000000000000000000000600052602160045260246000fd5b60048110611409576114086113c9565b5b50565b600081905061141a826113f8565b919050565b600061142a8261140c565b9050919050565b61143a8161141f565b82525050565b600061144c8383611431565b60208301905092915050565b6000602082019050919050565b60006114708261139d565b61147a81856113a8565b9350611485836113b9565b8060005b838110156114b657815161149d8882611440565b97506114a883611458565b925050600181019050611489565b5085935050505092915050565b60006040830160008301516114db6000860182611189565b50602083015184820360208601526114f38282611465565b9150508091505092915050565b600061150c83836114c3565b905092915050565b6000602082019050919050565b600061152c82611371565b611536818561137c565b9350836020820285016115488561138d565b8060005b8581101561158457848403895281516115658582611500565b945061157083611514565b925060208a0199505060018101905061154c565b50829750879550505050505092915050565b600060e0820190506115ab600083018a6112c5565b6115b860208301896112c5565b6115c56040830188610a65565b6115d26060830187611362565b6115df6080830186611362565b6115ec60a08301856112c5565b81810360c08301526115fe8184611521565b905098975050505050505050565b61161581610979565b82525050565b600061010082019050611631600083018b61160c565b61163e602083018a610a65565b61164b60408301896112c5565b61165860608301886112c5565b6116656080830187611362565b61167260a0830186611362565b61167f60c08301856112c5565b81810360e08301526116918184611521565b90509998505050505050505050565b600082825260208201905092915050565b7f21616d6f756e7400000000000000000000000000000000000000000000000000600082015250565b60006116e76007836116a0565b91506116f2826116b1565b602082019050919050565b60006020820190508181036000830152611716816116da565b9050919050565b7f21616d6f756e744f757400000000000000000000000000000000000000000000600082015250565b6000611753600a836116a0565b915061175e8261171d565b602082019050919050565b6000602082019050818103600083015261178281611746565b9050919050565b7f21696e76616c6964000000000000000000000000000000000000000000000000600082015250565b60006117bf6008836116a0565b91506117ca82611789565b602082019050919050565b600060208201905081810360008301526117ee816117b2565b9050919050565b600081905092915050565b600061180b82610f6c565b61181581856117f5565b9350611825818560208601610f88565b80840191505092915050565b600061183d8284611800565b915081905092915050565b7f5341000000000000000000000000000000000000000000000000000000000000600082015250565b600061187e6002836116a0565b915061188982611848565b602082019050919050565b600060208201905081810360008301526118ad81611871565b9050919050565b60006118bf8261088d565b9050919050565b6118cf816118b4565b81146118da57600080fd5b50565b6000813590506118ec816118c6565b92915050565b600080600080600080600080610100898b03121561191357611912610931565b5b60006119218b828c0161099f565b98505060206119328b828c016109d5565b97505060406119438b828c016118dd565b96505060606119548b828c016118dd565b95505060806119658b828c01610ab6565b94505060a06119768b828c01610ab6565b93505060c06119878b828c016118dd565b92505060e089013567ffffffffffffffff8111156119a8576119a7610936565b5b6119b48b828c01610d72565b915050929598509295989093965056fea26469706673582212204c7586c5ce9f0fed5b954c0a39d159b5a33e84d60f3ee37af73cfe38291627d064736f6c63430008110033",
  "devdoc": {
    "kind": "dev",
    "methods": {
      "deposit(address,address,uint256,uint32,uint32,address,(address,uint8[])[])": {
        "params": {
          "_amount": "How many \"from\" tokens will be swapped in total",
          "_amountOfSwaps": "How many swaps to execute for this position",
          "_from": "The address of the \"from\" token",
          "_owner": "The address of the owner of the position being created",
          "_swapInterval": "How frequently the position's swaps should be executed",
          "_to": "The address of the \"to\" token"
        },
        "returns": {
          "_positionId": "The id of the created position"
        }
      }
    },
    "version": 1
  },
  "userdoc": {
    "kind": "user",
    "methods": {
      "deposit(address,address,uint256,uint32,uint32,address,(address,uint8[])[])": {
        "notice": "Creates a new position"
      },
      "hub()": {
        "notice": "MeanFinance IDCAHub contract for deposit"
      },
      "swapRouter()": {
        "notice": "UniswapV3 swap router contract to swap"
      }
    },
    "version": 1
  },
  "storageLayout": {
    "storage": [],
    "types": null
  }
}