{
  "address": "0xC825d25123Ca8d49066cf8F0AeE164660056e172",
  "abi": [
    {
      "inputs": [
        {
          "internalType": "address",
          "name": "_connext",
          "type": "address"
        },
        {
          "internalType": "address",
          "name": "_hub",
          "type": "address"
        }
      ],
      "stateMutability": "nonpayable",
      "type": "constructor"
    },
    {
      "inputs": [
        {
          "internalType": "address",
          "name": "sender",
          "type": "address"
        }
      ],
      "name": "ForwarderXReceiver__onlyConnext",
      "type": "error"
    },
    {
      "inputs": [
        {
          "internalType": "address",
          "name": "sender",
          "type": "address"
        }
      ],
      "name": "ForwarderXReceiver__prepareAndForward_notThis",
      "type": "error"
    },
    {
      "anonymous": false,
      "inputs": [
        {
          "indexed": false,
          "internalType": "uint256",
          "name": "positionID",
          "type": "uint256"
        }
      ],
      "name": "Deposited",
      "type": "event"
    },
    {
      "anonymous": false,
      "inputs": [
        {
          "indexed": false,
          "internalType": "bytes32",
          "name": "_transferId",
          "type": "bytes32"
        }
      ],
      "name": "ForwardedFunctionCallFailed",
      "type": "event"
    },
    {
      "anonymous": false,
      "inputs": [
        {
          "indexed": false,
          "internalType": "bytes32",
          "name": "_transferId",
          "type": "bytes32"
        },
        {
          "indexed": false,
          "internalType": "string",
          "name": "_errorMessage",
          "type": "string"
        }
      ],
      "name": "ForwardedFunctionCallFailed",
      "type": "event"
    },
    {
      "anonymous": false,
      "inputs": [
        {
          "indexed": false,
          "internalType": "bytes32",
          "name": "_transferId",
          "type": "bytes32"
        },
        {
          "indexed": false,
          "internalType": "uint256",
          "name": "_errorCode",
          "type": "uint256"
        }
      ],
      "name": "ForwardedFunctionCallFailed",
      "type": "event"
    },
    {
      "anonymous": false,
      "inputs": [
        {
          "indexed": false,
          "internalType": "bytes32",
          "name": "_transferId",
          "type": "bytes32"
        },
        {
          "indexed": false,
          "internalType": "bytes",
          "name": "_lowLevelData",
          "type": "bytes"
        }
      ],
      "name": "ForwardedFunctionCallFailed",
      "type": "event"
    },
    {
      "anonymous": false,
      "inputs": [
        {
          "indexed": true,
          "internalType": "address",
          "name": "previousOwner",
          "type": "address"
        },
        {
          "indexed": true,
          "internalType": "address",
          "name": "newOwner",
          "type": "address"
        }
      ],
      "name": "OwnershipTransferStarted",
      "type": "event"
    },
    {
      "anonymous": false,
      "inputs": [
        {
          "indexed": true,
          "internalType": "address",
          "name": "previousOwner",
          "type": "address"
        },
        {
          "indexed": true,
          "internalType": "address",
          "name": "newOwner",
          "type": "address"
        }
      ],
      "name": "OwnershipTransferred",
      "type": "event"
    },
    {
      "anonymous": false,
      "inputs": [
        {
          "indexed": false,
          "internalType": "bytes32",
          "name": "_transferId",
          "type": "bytes32"
        },
        {
          "indexed": false,
          "internalType": "bytes",
          "name": "_data",
          "type": "bytes"
        },
        {
          "indexed": false,
          "internalType": "uint256",
          "name": "_amount",
          "type": "uint256"
        },
        {
          "indexed": false,
          "internalType": "address",
          "name": "_asset",
          "type": "address"
        }
      ],
      "name": "Prepared",
      "type": "event"
    },
    {
      "inputs": [],
      "name": "acceptOwnership",
      "outputs": [],
      "stateMutability": "nonpayable",
      "type": "function"
    },
    {
      "inputs": [
        {
          "internalType": "address",
          "name": "_swapper",
          "type": "address"
        }
      ],
      "name": "addSwapper",
      "outputs": [],
      "stateMutability": "nonpayable",
      "type": "function"
    },
    {
      "inputs": [
        {
          "internalType": "address",
          "name": "",
          "type": "address"
        }
      ],
      "name": "allowedSwappers",
      "outputs": [
        {
          "internalType": "bool",
          "name": "",
          "type": "bool"
        }
      ],
      "stateMutability": "view",
      "type": "function"
    },
    {
      "inputs": [],
      "name": "connext",
      "outputs": [
        {
          "internalType": "contract IConnext",
          "name": "",
          "type": "address"
        }
      ],
      "stateMutability": "view",
      "type": "function"
    },
    {
      "inputs": [
        {
          "internalType": "address",
          "name": "_swapper",
          "type": "address"
        },
        {
          "internalType": "bytes",
          "name": "swapData",
          "type": "bytes"
        }
      ],
      "name": "directSwapperCall",
      "outputs": [
        {
          "internalType": "uint256",
          "name": "amountOut",
          "type": "uint256"
        }
      ],
      "stateMutability": "payable",
      "type": "function"
    },
    {
      "inputs": [
        {
          "internalType": "address",
          "name": "_swapper",
          "type": "address"
        },
        {
          "internalType": "uint256",
          "name": "_amountIn",
          "type": "uint256"
        },
        {
          "internalType": "address",
          "name": "_fromAsset",
          "type": "address"
        },
        {
          "internalType": "address",
          "name": "_toAsset",
          "type": "address"
        },
        {
          "internalType": "bytes",
          "name": "_swapData",
          "type": "bytes"
        }
      ],
      "name": "exactSwap",
      "outputs": [
        {
          "internalType": "uint256",
          "name": "amountOut",
          "type": "uint256"
        }
      ],
      "stateMutability": "payable",
      "type": "function"
    },
    {
      "inputs": [],
      "name": "hub",
      "outputs": [
        {
          "internalType": "contract IDCAHub",
          "name": "",
          "type": "address"
        }
      ],
      "stateMutability": "view",
      "type": "function"
    },
    {
      "inputs": [],
      "name": "owner",
      "outputs": [
        {
          "internalType": "address",
          "name": "",
          "type": "address"
        }
      ],
      "stateMutability": "view",
      "type": "function"
    },
    {
      "inputs": [],
      "name": "pendingOwner",
      "outputs": [
        {
          "internalType": "address",
          "name": "",
          "type": "address"
        }
      ],
      "stateMutability": "view",
      "type": "function"
    },
    {
      "inputs": [
        {
          "internalType": "bytes32",
          "name": "_transferId",
          "type": "bytes32"
        },
        {
          "internalType": "bytes",
          "name": "_data",
          "type": "bytes"
        },
        {
          "internalType": "uint256",
          "name": "_amount",
          "type": "uint256"
        },
        {
          "internalType": "address",
          "name": "_asset",
          "type": "address"
        }
      ],
      "name": "prepareAndForward",
      "outputs": [
        {
          "internalType": "bool",
          "name": "",
          "type": "bool"
        }
      ],
      "stateMutability": "nonpayable",
      "type": "function"
    },
    {
      "inputs": [
        {
          "internalType": "address",
          "name": "_swapper",
          "type": "address"
        }
      ],
      "name": "removeSwapper",
      "outputs": [],
      "stateMutability": "nonpayable",
      "type": "function"
    },
    {
      "inputs": [],
      "name": "renounceOwnership",
      "outputs": [],
      "stateMutability": "nonpayable",
      "type": "function"
    },
    {
      "inputs": [
        {
          "internalType": "address",
          "name": "newOwner",
          "type": "address"
        }
      ],
      "name": "transferOwnership",
      "outputs": [],
      "stateMutability": "nonpayable",
      "type": "function"
    },
    {
      "inputs": [],
      "name": "uniswapSwapRouter",
      "outputs": [
        {
          "internalType": "address",
          "name": "",
          "type": "address"
        }
      ],
      "stateMutability": "view",
      "type": "function"
    },
    {
      "inputs": [
        {
          "internalType": "bytes32",
          "name": "_transferId",
          "type": "bytes32"
        },
        {
          "internalType": "uint256",
          "name": "_amount",
          "type": "uint256"
        },
        {
          "internalType": "address",
          "name": "_asset",
          "type": "address"
        },
        {
          "internalType": "address",
          "name": "",
          "type": "address"
        },
        {
          "internalType": "uint32",
          "name": "",
          "type": "uint32"
        },
        {
          "internalType": "bytes",
          "name": "_callData",
          "type": "bytes"
        }
      ],
      "name": "xReceive",
      "outputs": [
        {
          "internalType": "bytes",
          "name": "",
          "type": "bytes"
        }
      ],
      "stateMutability": "nonpayable",
      "type": "function"
    },
    {
      "stateMutability": "payable",
      "type": "receive"
    }
  ],
  "transactionHash": "0xde5f1c691b136ab7ee46fd41f36ca17c5aa8d320bb8126f4f3f536f73f074d02",
  "args": [
    "0x11984dc4465481512eb5b777E44061C158CF2259",
    "0xA5AdC5484f9997fBF7D405b9AA62A7d88883C345"
  ],
  "numDeployments": 1,
  "solcInputHash": "9f66c88f93cf4c3d4622bf6dd049af95",
  "bytecode": "0x60e03461012c57601f61181338819003918201601f19168301916001600160401b0383118484101761013157808492604094855283398101031261012c57610052602061004b83610147565b9201610147565b6001600160a01b03918216608052600180546001600160a01b03199081169091556000805491821633908117825560405194939284167f8be0079c531659141344cd1fd0a4f28419497f9722a3daafe3b4186f6b6457e08380a36001604073e592427a0aece92de3edee1f18e0157c05861564928360a05230815260026020528181209360ff19948486825416179055815220918254161790551660c0526116b7908161015c82396080518181816101350152610565015260a05181610f7c015260c05181818161086c0152818161093b0152610fbe0152f35b600080fd5b634e487b7160e01b600052604160045260246000fd5b51906001600160a01b038216820361012c5756fe608080604052600436101561001d575b50361561001b57600080fd5b005b60003560e01c908163365a86fc14610fab5750806336f7d9f814610f665780633f2d413114610f24578063715018a614610ebf57806379ba509714610df75780638da5cb5b14610dce5780638ff1ed9714610d8f5780639938500614610d4a578063a0d7010214610c43578063a8cf939a14610594578063de4b05481461054f578063defc2248146104ef578063e30c3978146104c6578063f2fde38b146104565763fd614f41146100cf573861000f565b346104395760c0366003190112610439576024356004356100ee611019565b916100f7611003565b5060843563ffffffff811603610439576001600160401b0360a4358181116104395761012790369060040161102f565b90946001600160a01b0393917f00000000000000000000000000000000000000000000000000000000000000008516330361043e5786019460408787031261043957863596858816809803610439576020968782013595861161043957879561019092016110ea565b908285856000946101b66040519485938493635467c9cd60e11b855288600486016111c0565b03816000305af16000918161041a575b506103d957506001600060033d116103c7575b806308c379a01461036557634e487b7114610300575b6102ae575b505b15958661022c575b604051871581860152848152846102148261105c565b61022860405192828493845283019061112b565b0390f35b60405163a9059cbb60e01b81526001600160a01b039190911660048201526024810192909252909283916044918391600091165af180156102a257610275575b818180806101fe565b61029490823d841161029b575b61028c8183611077565b8101906111a8565b503861026c565b503d610282565b6040513d6000823e3d90fd5b90507fd2910f39771e835e5ce7a46de2960a760c01e9a619eb6dcc5edcc66769be01b76102d9611262565b6000926102f76040519283928352604089840152604083019061112b565b0390a1386101f4565b60008060233d11610353575b610317575b506101ef565b92505060007f8417b1b7f20d2303f09dcc366b1ba3cffaff11a075be3176b7d9438c7ff1ecc1604060009481519085825289820152a138610311565b505085600460003e600051600161030c565b5061036e6111f4565b8061037957506101ef565b92505060007f790be3f6f50a0117fedb3f7bc0884cb2ec714072a14a7fbff383d30ca387354a6103be60009460405191829186835260408b840152604083019061112b565b0390a138610311565b5060046000803e60005160e01c6101d9565b91508482156103ea575b50506101f6565b7fb284b558e6c999e6d852feb06fb775cb93820bf7cbeb38ede491e913735b5fe891604051908152a138846103e3565b610432919250873d891161029b5761028c8183611077565b90386101c6565b600080fd5b6040516334b1fceb60e21b8152336004820152602490fd5b346104395760203660031901126104395761046f610fed565b610477611150565b60018060a01b0380911690816bffffffffffffffffffffffff60a01b6001541617600155600054167f38d16b8cac22d99fc7c124b9cd0de2d3fa1faef420bfe791d8c362d765e22700600080a3005b34610439576000366003190112610439576001546040516001600160a01b039091168152602090f35b60a036600319011261043957610503610fed565b61050b611019565b90610514611003565b91608435916001600160401b0383116104395760209361053b61054794369060040161102f565b93909260243590611331565b604051908152f35b34610439576000366003190112610439576040517f00000000000000000000000000000000000000000000000000000000000000006001600160a01b03168152602090f35b34610439576080366003190112610439576024356001600160401b038111610439576105c49036906004016110ea565b6105cc611003565b90303303610c2b57805181019060808160208401930312610439576105f360208201611292565b9161060060408301611292565b9160608101516001600160401b03811161043957826020610623928401016112a6565b916080820151926001600160401b0384116104395761064b60209283610698968601016112a6565b604051631bdf844960e31b81526001600160a01b03978816600482015260448035602483015289891690820152968616606488015260a060848801529593849182919060a483019061112b565b03816000305af19081156102a257600091610bd7575b7f3a700941af6362d63bae3aafce3cc3a3f05b149061a37fb8678d9f6aea1201cf92506106e96040519560a0602088015260c087019061112b565b91604086015261073d606086019660018060a01b0381168852608087019560018060a01b0316865261072d87600435958660a083015203601f198101895288611077565b60405193849360443591856111c0565b0390a18151820190608083830312610439576020830151916001600160401b03831161043957604061077d61078c946020806107869501918801016112a6565b94015194611292565b50611292565b50805181019060c081830312610439576107a860208201611292565b906107b560408201611292565b936107c2606083016112e8565b6107ce608084016112e8565b6107da60a08501611292565b9260c08501516001600160401b0381116104395760208801603f828801011215610439576020818701015161080e816112f9565b9661081c6040519889611077565b8188526020880190819a6020810160408560051b87850101011161043957604085830101925b60408560051b87850101018410610a9157505060405163095ea7b360e01b81526001600160a01b037f00000000000000000000000000000000000000000000000000000000000000008116600483015260248201879052909450602093508492506044915082906000908c165af180156102a257610a72575b50604051636b29e1bd60e01b81526001600160a01b0396871660048201529786166024890152604488015263ffffffff918216606488015216608486015290911660a484015260e060c48401525160e48301819052610104600582901b8401810192849290916000919084015b8183106109dd57846020818089038160007f00000000000000000000000000000000000000000000000000000000000000006001600160a01b03165af19081156102a2576000916109aa575b7f2a89b2e3d580398d6dc2db5e0f336b52602bbaa51afa9bb5cdf59239cf0d2bea602083604051908152a1602060405160018152f35b90506020813d6020116109d5575b816109c560209383611077565b8101031261043957516020610974565b3d91506109b8565b91935091936101031986820301825284516020606081604085019360018060a01b0381511686520151936040838201528451809452019201906000905b808210610a395750505060208060019296019201930190918593610928565b9091928351906004821015610a5c57602081600193829352019401920190610a1a565b634e487b7160e01b600052602160045260246000fd5b610a8a9060203d60201161029b5761028c8183611077565b50886108bb565b83516001600160401b03811161043957604084880182018403601f19011261043957604051908160408101106001600160401b03604084011117610bc15760408281018152858901820101516001600160a01b0381168103610439578252606081898701010151906001600160401b0382116104395760208501605f83838c8a01010101121561043957604082828b890101010151610b2f816112f9565b92610b3d6040519485611077565b81845260208401908b60608a838760208d01948860051b93010101010111610439578360608a838f9597838282898601010101965b8860051b9301010101018310610b9d5750505050602080840192909252509082529384019301610842565b8251946004861015610439578a838f97602080858793606097520197019698610b72565b634e487b7160e01b600052604160045260246000fd5b90506020823d602011610c23575b81610bf260209383611077565b81010312610439577f3a700941af6362d63bae3aafce3cc3a3f05b149061a37fb8678d9f6aea1201cf9151906106ae565b3d9150610be5565b60405163a4168a9360e01b8152336004820152602490fd5b604036600319011261043957610c57610fed565b6024356001600160401b03811161043957610c79610c8091369060040161102f565b36916110b3565b90604051610c8d8161105c565b601881526020917f216469726563745377617070657243616c6c4661696c6564000000000000000083830152344710610cf6576000808585610cdf969751910134855af1610cd9611262565b916115e4565b818180518101031261043957810151604051908152f35b60405162461bcd60e51b815260048101849052602660248201527f416464726573733a20696e73756666696369656e742062616c616e636520666f6044820152651c8818d85b1b60d21b6064820152608490fd5b3461043957602036600319011261043957610d63610fed565b610d6b611150565b6001600160a01b03166000908152600260205260409020805460ff19166001179055005b34610439576020366003190112610439576001600160a01b03610db0610fed565b166000526002602052602060ff604060002054166040519015158152f35b34610439576000366003190112610439576000546040516001600160a01b039091168152602090f35b34610439576000366003190112610439576001546001600160a01b033381831603610e68576bffffffffffffffffffffffff60a01b8092166001556000549133908316176000553391167f8be0079c531659141344cd1fd0a4f28419497f9722a3daafe3b4186f6b6457e0600080a3005b60405162461bcd60e51b815260206004820152602960248201527f4f776e61626c6532537465703a2063616c6c6572206973206e6f7420746865206044820152683732bb9037bbb732b960b91b6064820152608490fd5b3461043957600036600319011261043957610ed8611150565b600180546001600160a01b0319908116909155600080549182168155906001600160a01b03167f8be0079c531659141344cd1fd0a4f28419497f9722a3daafe3b4186f6b6457e08280a3005b3461043957602036600319011261043957610f3d610fed565b610f45611150565b6001600160a01b03166000908152600260205260409020805460ff19169055005b34610439576000366003190112610439576040517f00000000000000000000000000000000000000000000000000000000000000006001600160a01b03168152602090f35b34610439576000366003190112610439577f00000000000000000000000000000000000000000000000000000000000000006001600160a01b03168152602090f35b600435906001600160a01b038216820361043957565b606435906001600160a01b038216820361043957565b604435906001600160a01b038216820361043957565b9181601f84011215610439578235916001600160401b038311610439576020838186019501011161043957565b604081019081106001600160401b03821117610bc157604052565b90601f801991011681019081106001600160401b03821117610bc157604052565b6001600160401b038111610bc157601f01601f191660200190565b9291926110bf82611098565b916110cd6040519384611077565b829481845281830111610439578281602093846000960137010152565b9080601f8301121561043957816020611105933591016110b3565b90565b60005b83811061111b5750506000910152565b818101518382015260200161110b565b9060209161114481518092818552858086019101611108565b601f01601f1916010190565b6000546001600160a01b0316330361116457565b606460405162461bcd60e51b815260206004820152602060248201527f4f776e61626c653a2063616c6c6572206973206e6f7420746865206f776e65726044820152fd5b90816020910312610439575180151581036104395790565b929493906060926111de91855260806020860152608085019061112b565b60408401959095526001600160a01b0316910152565b600060443d1061110557604051600319913d83016004833e81516001600160401b03918282113d60248401111761125157818401948551938411611259573d85010160208487010111611251575061110592910160200190611077565b949350505050565b50949350505050565b3d1561128d573d9061127382611098565b916112816040519384611077565b82523d6000602084013e565b606090565b51906001600160a01b038216820361043957565b81601f820112156104395780516112bc81611098565b926112ca6040519485611077565b81845260208284010111610439576111059160208085019101611108565b519063ffffffff8216820361043957565b6001600160401b038111610bc15760051b60200190565b908060209392818452848401376000828201840152601f01601f1916010190565b9490929460018060a01b03809116906000948286526020946002865260409860ff8a89205416156115ae578316928116908382146115a157816113ff5750509085859493926113a78a51998a968795869463f6b13d3f60e01b865260048601526024850152606060448501526064840191611310565b03925af19384156113f4575081936113c0575b50505090565b9091809350813d83116113ed575b6113d88183611077565b810103126113ea5750513880806113ba565b80fd5b503d6113ce565b51913d9150823e3d90fd5b89989193959851636eb1769f60e11b81523060048201528560248201528781604481885afa90811561159757918993918998979695938591611556575b50831161147c575b506113a7908b519a8b978896879563a2c554d360e01b8752600487015260248601526044850152608060648501526084840191611310565b919394959650915089518781019063095ea7b360e01b8252866024820152600019604482015260448152608081018181106001600160401b03821117611542578c5251899283929083905af16114d0611262565b81611512575b50156114e9578594939291879138611444565b885162461bcd60e51b8152600481018790526002602482015261534160f01b6044820152606490fd5b8051801592508890831561152a575b505050386114d6565b61153a93508201810191016111a8565b388781611521565b634e487b7160e01b8b52604160045260248bfd5b92945050919394959681813d8311611590575b6115738183611077565b8101031261158c5791839188979695948a94519061143c565b8880fd5b503d611569565b8b513d8b823e3d90fd5b5050965050505050505090565b895162461bcd60e51b815260048101889052600f60248201526e10b0b63637bbb2b229bbb0b83832b960891b6044820152606490fd5b9192901561164657508151156115f8575090565b3b156116015790565b60405162461bcd60e51b815260206004820152601d60248201527f416464726573733a2063616c6c20746f206e6f6e2d636f6e74726163740000006044820152606490fd5b8251909150156116595750805190602001fd5b60405162461bcd60e51b81526020600482015290819061167d90602483019061112b565b0390fdfea2646970667358221220f26c4772eb6ef98aefb77b77ac349b60250f5cd70da812b5905b5bf52eb471ba64736f6c63430008130033",
  "devdoc": {
    "kind": "dev",
    "methods": {
      "acceptOwnership()": {
        "details": "The new owner accepts the ownership transfer."
      },
      "addSwapper(address)": {
        "params": {
          "_swapper": "Address of the swapper to add."
        }
      },
      "directSwapperCall(address,bytes)": {
        "params": {
          "_swapper": "Address of the swapper to use.",
          "swapData": "Data to pass to the swapper. This data is encoded for a particular swap router."
        }
      },
      "exactSwap(address,uint256,address,address,bytes)": {
        "params": {
          "_amountIn": "Amount of tokens to swap.",
          "_fromAsset": "Address of the token to swap from.",
          "_swapData": "Data to pass to the swapper. This data is encoded for a particular swap router, usually given by an API. The swapper will decode the data and re-encode it with the new amountIn.",
          "_swapper": "Address of the swapper to use.",
          "_toAsset": "Address of the token to swap to."
        }
      },
      "owner()": {
        "details": "Returns the address of the current owner."
      },
      "pendingOwner()": {
        "details": "Returns the address of the pending owner."
      },
      "prepareAndForward(bytes32,bytes,uint256,address)": {
        "details": "This function is intended to be called by the xReceive function, and should not be called outside of that context. The function is `public` so that it can be used with try-catch.",
        "params": {
          "_amount": "- The amount of funds received in this transfer",
          "_asset": "- The asset of the funds received in this transfer",
          "_data": "- The data to be prepared",
          "_transferId": "- The transfer ID of the transfer that triggered this call"
        }
      },
      "removeSwapper(address)": {
        "params": {
          "_swapper": "Address of the swapper to remove."
        }
      },
      "renounceOwnership()": {
        "details": "Leaves the contract without owner. It will not be possible to call `onlyOwner` functions anymore. Can only be called by the current owner. NOTE: Renouncing ownership will leave the contract without an owner, thereby removing any functionality that is only available to the owner."
      },
      "transferOwnership(address)": {
        "details": "Starts the ownership transfer of the contract to a new account. Replaces the pending transfer if there is one. Can only be called by the current owner."
      },
      "xReceive(bytes32,uint256,address,address,uint32,bytes)": {
        "details": "_originSender and _origin are not used in this implementation because this is meant for an \"unauthenticated\" call. This means any router can call this function and no guarantees are made on the data passed in. This should only be used when there are funds passed into the contract that need to be forwarded to another contract. This guarantees economically that there is no reason to call this function maliciously, because the router would be spending their own funds.",
        "params": {
          "_amount": "- The amount of funds received in this transfer.",
          "_asset": "- The asset of the funds received in this transfer.",
          "_callData": "- The data to be prepared and forwarded. Fallback address needs to be encoded in the data to be used in case the forward fails.",
          "_transferId": "- The transfer ID of the transfer that triggered this call."
        }
      }
    },
    "version": 1
  },
  "userdoc": {
    "errors": {
      "ForwarderXReceiver__onlyConnext(address)": [
        {
          "notice": "ERRORS"
        }
      ]
    },
    "events": {
      "ForwardedFunctionCallFailed(bytes32)": {
        "notice": "EVENTS"
      }
    },
    "kind": "user",
    "methods": {
      "addSwapper(address)": {
        "notice": "Add a swapper to the list of allowed swappers."
      },
      "directSwapperCall(address,bytes)": {
        "notice": "Swap an exact amount of tokens for another token. Uses a direct call to the swapper to allow easy swaps on the source side where the amount does not need to be changed."
      },
      "exactSwap(address,uint256,address,address,bytes)": {
        "notice": "Swap an exact amount of tokens for another token."
      },
      "hub()": {
        "notice": "MeanFinance IDCAHub contract for deposit"
      },
      "prepareAndForward(bytes32,bytes,uint256,address)": {
        "notice": "Prepares the data for the function call and forwards it. This can execute any arbitrary function call in a two step process. For example, _prepare can be used to swap funds on a DEX, and _forwardFunctionCall can be used to call a contract with the swapped funds."
      },
      "removeSwapper(address)": {
        "notice": "Remove a swapper from the list of allowed swappers."
      },
      "xReceive(bytes32,uint256,address,address,uint32,bytes)": {
        "notice": "Receives funds from Connext and forwards them to a contract, using a two step process which is defined by the developer."
      }
    },
    "version": 1
  },
  "storageLayout": {
    "storage": [
      {
        "astId": 1334,
        "contract": "contracts/integration/MeanFinance/MeanFinanceTarget.sol:MeanFinanceTarget",
        "label": "_owner",
        "offset": 0,
        "slot": "0",
        "type": "t_address"
      },
      {
        "astId": 1447,
        "contract": "contracts/integration/MeanFinance/MeanFinanceTarget.sol:MeanFinanceTarget",
        "label": "_pendingOwner",
        "offset": 0,
        "slot": "1",
        "type": "t_address"
      },
      {
        "astId": 4944,
        "contract": "contracts/integration/MeanFinance/MeanFinanceTarget.sol:MeanFinanceTarget",
        "label": "allowedSwappers",
        "offset": 0,
        "slot": "2",
        "type": "t_mapping(t_address,t_bool)"
      }
    ],
    "types": {
      "t_address": {
        "encoding": "inplace",
        "label": "address",
        "numberOfBytes": "20"
      },
      "t_bool": {
        "encoding": "inplace",
        "label": "bool",
        "numberOfBytes": "1"
      },
      "t_mapping(t_address,t_bool)": {
        "encoding": "mapping",
        "key": "t_address",
        "label": "mapping(address => bool)",
        "numberOfBytes": "32",
        "value": "t_bool"
      }
    }
  }
}