{
  "address": "0xDF97CadbcCeE9cfdB12A3e9BB7663E6753A71a0C",
  "abi": [
    {
      "inputs": [
        {
          "internalType": "address",
          "name": "_connext",
          "type": "address"
        },
        {
          "internalType": "address",
          "name": "_comptroller",
          "type": "address"
        }
      ],
      "stateMutability": "nonpayable",
      "type": "constructor"
    },
    {
      "inputs": [
        {
          "internalType": "address",
          "name": "sender",
          "type": "address"
        }
      ],
      "name": "ForwarderXReceiver__onlyConnext",
      "type": "error"
    },
    {
      "inputs": [
        {
          "internalType": "address",
          "name": "sender",
          "type": "address"
        }
      ],
      "name": "ForwarderXReceiver__prepareAndForward_notThis",
      "type": "error"
    },
    {
      "anonymous": false,
      "inputs": [
        {
          "indexed": false,
          "internalType": "bytes32",
          "name": "_transferId",
          "type": "bytes32"
        }
      ],
      "name": "ForwardedFunctionCallFailed",
      "type": "event"
    },
    {
      "anonymous": false,
      "inputs": [
        {
          "indexed": false,
          "internalType": "bytes32",
          "name": "_transferId",
          "type": "bytes32"
        },
        {
          "indexed": false,
          "internalType": "string",
          "name": "_errorMessage",
          "type": "string"
        }
      ],
      "name": "ForwardedFunctionCallFailed",
      "type": "event"
    },
    {
      "anonymous": false,
      "inputs": [
        {
          "indexed": false,
          "internalType": "bytes32",
          "name": "_transferId",
          "type": "bytes32"
        },
        {
          "indexed": false,
          "internalType": "uint256",
          "name": "_errorCode",
          "type": "uint256"
        }
      ],
      "name": "ForwardedFunctionCallFailed",
      "type": "event"
    },
    {
      "anonymous": false,
      "inputs": [
        {
          "indexed": false,
          "internalType": "bytes32",
          "name": "_transferId",
          "type": "bytes32"
        },
        {
          "indexed": false,
          "internalType": "bytes",
          "name": "_lowLevelData",
          "type": "bytes"
        }
      ],
      "name": "ForwardedFunctionCallFailed",
      "type": "event"
    },
    {
      "anonymous": false,
      "inputs": [
        {
          "indexed": true,
          "internalType": "address",
          "name": "previousOwner",
          "type": "address"
        },
        {
          "indexed": true,
          "internalType": "address",
          "name": "newOwner",
          "type": "address"
        }
      ],
      "name": "OwnershipTransferStarted",
      "type": "event"
    },
    {
      "anonymous": false,
      "inputs": [
        {
          "indexed": true,
          "internalType": "address",
          "name": "previousOwner",
          "type": "address"
        },
        {
          "indexed": true,
          "internalType": "address",
          "name": "newOwner",
          "type": "address"
        }
      ],
      "name": "OwnershipTransferred",
      "type": "event"
    },
    {
      "anonymous": false,
      "inputs": [
        {
          "indexed": false,
          "internalType": "bytes32",
          "name": "_transferId",
          "type": "bytes32"
        },
        {
          "indexed": false,
          "internalType": "bytes",
          "name": "_data",
          "type": "bytes"
        },
        {
          "indexed": false,
          "internalType": "uint256",
          "name": "_amount",
          "type": "uint256"
        },
        {
          "indexed": false,
          "internalType": "address",
          "name": "_asset",
          "type": "address"
        }
      ],
      "name": "Prepared",
      "type": "event"
    },
    {
      "inputs": [],
      "name": "acceptOwnership",
      "outputs": [],
      "stateMutability": "nonpayable",
      "type": "function"
    },
    {
      "inputs": [
        {
          "internalType": "address",
          "name": "_swapper",
          "type": "address"
        }
      ],
      "name": "addSwapper",
      "outputs": [],
      "stateMutability": "nonpayable",
      "type": "function"
    },
    {
      "inputs": [
        {
          "internalType": "address",
          "name": "",
          "type": "address"
        }
      ],
      "name": "allowedSwappers",
      "outputs": [
        {
          "internalType": "bool",
          "name": "",
          "type": "bool"
        }
      ],
      "stateMutability": "view",
      "type": "function"
    },
    {
      "inputs": [],
      "name": "comptroller",
      "outputs": [
        {
          "internalType": "contract IComptroller",
          "name": "",
          "type": "address"
        }
      ],
      "stateMutability": "view",
      "type": "function"
    },
    {
      "inputs": [],
      "name": "connext",
      "outputs": [
        {
          "internalType": "contract IConnext",
          "name": "",
          "type": "address"
        }
      ],
      "stateMutability": "view",
      "type": "function"
    },
    {
      "inputs": [
        {
          "internalType": "address",
          "name": "_swapper",
          "type": "address"
        },
        {
          "internalType": "bytes",
          "name": "swapData",
          "type": "bytes"
        }
      ],
      "name": "directSwapperCall",
      "outputs": [
        {
          "internalType": "uint256",
          "name": "amountOut",
          "type": "uint256"
        }
      ],
      "stateMutability": "payable",
      "type": "function"
    },
    {
      "inputs": [
        {
          "internalType": "address",
          "name": "_swapper",
          "type": "address"
        },
        {
          "internalType": "uint256",
          "name": "_amountIn",
          "type": "uint256"
        },
        {
          "internalType": "address",
          "name": "_fromAsset",
          "type": "address"
        },
        {
          "internalType": "address",
          "name": "_toAsset",
          "type": "address"
        },
        {
          "internalType": "bytes",
          "name": "_swapData",
          "type": "bytes"
        }
      ],
      "name": "exactSwap",
      "outputs": [
        {
          "internalType": "uint256",
          "name": "amountOut",
          "type": "uint256"
        }
      ],
      "stateMutability": "payable",
      "type": "function"
    },
    {
      "inputs": [],
      "name": "owner",
      "outputs": [
        {
          "internalType": "address",
          "name": "",
          "type": "address"
        }
      ],
      "stateMutability": "view",
      "type": "function"
    },
    {
      "inputs": [],
      "name": "pendingOwner",
      "outputs": [
        {
          "internalType": "address",
          "name": "",
          "type": "address"
        }
      ],
      "stateMutability": "view",
      "type": "function"
    },
    {
      "inputs": [
        {
          "internalType": "bytes32",
          "name": "_transferId",
          "type": "bytes32"
        },
        {
          "internalType": "bytes",
          "name": "_data",
          "type": "bytes"
        },
        {
          "internalType": "uint256",
          "name": "_amount",
          "type": "uint256"
        },
        {
          "internalType": "address",
          "name": "_asset",
          "type": "address"
        }
      ],
      "name": "prepareAndForward",
      "outputs": [
        {
          "internalType": "bool",
          "name": "",
          "type": "bool"
        }
      ],
      "stateMutability": "nonpayable",
      "type": "function"
    },
    {
      "inputs": [
        {
          "internalType": "address",
          "name": "_swapper",
          "type": "address"
        }
      ],
      "name": "removeSwapper",
      "outputs": [],
      "stateMutability": "nonpayable",
      "type": "function"
    },
    {
      "inputs": [],
      "name": "renounceOwnership",
      "outputs": [],
      "stateMutability": "nonpayable",
      "type": "function"
    },
    {
      "inputs": [
        {
          "internalType": "address",
          "name": "newOwner",
          "type": "address"
        }
      ],
      "name": "transferOwnership",
      "outputs": [],
      "stateMutability": "nonpayable",
      "type": "function"
    },
    {
      "inputs": [],
      "name": "uniswapSwapRouter",
      "outputs": [
        {
          "internalType": "address",
          "name": "",
          "type": "address"
        }
      ],
      "stateMutability": "view",
      "type": "function"
    },
    {
      "inputs": [
        {
          "internalType": "bytes32",
          "name": "_transferId",
          "type": "bytes32"
        },
        {
          "internalType": "uint256",
          "name": "_amount",
          "type": "uint256"
        },
        {
          "internalType": "address",
          "name": "_asset",
          "type": "address"
        },
        {
          "internalType": "address",
          "name": "",
          "type": "address"
        },
        {
          "internalType": "uint32",
          "name": "",
          "type": "uint32"
        },
        {
          "internalType": "bytes",
          "name": "_callData",
          "type": "bytes"
        }
      ],
      "name": "xReceive",
      "outputs": [
        {
          "internalType": "bytes",
          "name": "",
          "type": "bytes"
        }
      ],
      "stateMutability": "nonpayable",
      "type": "function"
    },
    {
      "stateMutability": "payable",
      "type": "receive"
    }
  ],
  "transactionHash": "0xeb2bfcf9def23f3099100fdf796a12caba5598b186b0286fcede43ad6d35fc7f",
  "args": [
    "0x11984dc4465481512eb5b777E44061C158CF2259",
    "0xDb984f8cbc1cF893a18c2DA50282a1492234602c"
  ],
  "numDeployments": 1,
  "solcInputHash": "9f66c88f93cf4c3d4622bf6dd049af95",
  "bytecode": "0x60e03461012d57601f6119aa38819003918201601f19168301916001600160401b0383118484101761013257808492604094855283398101031261012d5760208161004c61006193610148565b6001600160a01b039384939192849201610148565b166080521660a05260018060a01b0319806001541660015560009081549033908216178255604051923391167f8be0079c531659141344cd1fd0a4f28419497f9722a3daafe3b4186f6b6457e08380a36001604073e592427a0aece92de3edee1f18e0157c05861564928360c05230815260026020528181209360ff199484868254161790558152209182541617905561184d908161015d82396080518181816107ee01528181610be101526110ec015260a0518181816101380152610561015260c0518161116e0152f35b600080fd5b634e487b7160e01b600052604160045260246000fd5b51906001600160a01b038216820361012d5756fe60806040908082526004361015610020575b5050361561001e57600080fd5b005b60003560e01c90816336f7d9f81461115b575080633f2d41311461111b5780635fe3b567146110d7578063715018a61461107257806379ba509714610fa85780638da5cb5b14610f7f5780638ff1ed9714610f415780639938500614610efe578063a0d7010214610df9578063a8cf939a14610590578063de4b05481461054c578063defc2248146104eb578063e30c3978146104c2578063f2fde38b146104525763fd614f41146100d25780610011565b346104365760c0366003190112610436576004356024356100f16111c9565b926100fa6111b3565b5060843563ffffffff811603610436576001600160401b0360a4358181116104365761012a9036906004016111df565b90956001600160a01b0394917f00000000000000000000000000000000000000000000000000000000000000008616330361043b578701958488880312610436578735978689168099036104365760209788820135958611610436578895610192920161129a565b908285856000946101b78a519485938493635467c9cd60e11b85528860048601611370565b03816000305af160009181610417575b506103d757506001600060033d116103c5575b806308c379a01461036657634e487b7114610302575b6102b3575b505b15968761022b575b845188158186015284815284610227876102188461120c565b519282849384528301906112db565b0390f35b845163a9059cbb60e01b81526001600160a01b0391909116600482015260248101929092529293909283916044918391600091165af180156102a85790610227929161027b575b808085926101ff565b61029a90843d86116102a1575b6102928183611227565b810190611358565b5038610272565b503d610288565b82513d6000823e3d90fd5b90507fd2910f39771e835e5ce7a46de2960a760c01e9a619eb6dcc5edcc66769be01b76102de611412565b6000926102f9885192839283528989840152898301906112db565b0390a1386101f5565b60008060233d11610354575b610319575b506101f0565b92505060007f8417b1b7f20d2303f09dcc366b1ba3cffaff11a075be3176b7d9438c7ff1ecc18760009481519085825289820152a138610313565b505085600460003e600051600161030e565b5061036f6113a4565b8061037a57506101f0565b92505060007f790be3f6f50a0117fedb3f7bc0884cb2ec714072a14a7fbff383d30ca387354a6103bc60009489519182918683528b8b8401528b8301906112db565b0390a138610313565b5060046000803e60005160e01c6101da565b91508482156103e8575b50506101f7565b7fb284b558e6c999e6d852feb06fb775cb93820bf7cbeb38ede491e913735b5fe8918751908152a138846103e1565b61042f919250873d89116102a1576102928183611227565b90386101c7565b600080fd5b84516334b1fceb60e21b8152336004820152602490fd5b346104365760203660031901126104365761046b61119d565b610473611300565b60018060a01b0380911690816bffffffffffffffffffffffff60a01b6001541617600155600054167f38d16b8cac22d99fc7c124b9cd0de2d3fa1faef420bfe791d8c362d765e22700600080a3005b50346104365760003660031901126104365760015490516001600160a01b039091168152602090f35b5060a03660031901126104365761050061119d565b906105096111c9565b916105126111b3565b92608435916001600160401b038311610436576020946105396105459436906004016111df565b939092602435906114b9565b9051908152f35b503461043657600036600319011261043657517f00000000000000000000000000000000000000000000000000000000000000006001600160a01b03168152602090f35b5034610436576080366003190112610436576024356001600160401b038111610436576105c190369060040161129a565b906105ca6111b3565b303303610de257825183019060808460208401930312610436576105f060208501611442565b916105fc848601611442565b9460608101516001600160401b0381116104365782602061061f92840101611456565b916080820151906001600160401b03821161043657602061064292840101611456565b90855194631bdf844960e31b865260018060a01b031660048601526044358060248701526020868061069d60018060a01b0389169b8c604484015260018060a01b03169788606484015260a0608484015260a48301906112db565b03816000305af1958615610dd757600096610d81575b50907f3a700941af6362d63bae3aafce3cc3a3f05b149061a37fb8678d9f6aea1201cf9161072f8851966106f3602089019660a0885260c08a01906112db565b928a8901998a52606089019b8c526080890197885261072489600435958660a083015203601f1981018b528a611227565b8a5194859485611370565b0390a1825183019060808483031261043657516001600160401b0381116104365761077693602061076892816107709501920101611456565b935195611442565b50611442565b506060818051810103126104365761079060208201611442565b9261079c838301611442565b916001600160a01b03906107b290606001611442565b16918215610d4e578115610d1c57835163929fe9a160e01b81523060048201526001600160a01b038681166024830152602090829060449082907f0000000000000000000000000000000000000000000000000000000000000000165afa908115610b4f57600091610cfd575b50610b79575b8351632b1e137760e21b81526020816004816001600160a01b038a165afa908115610b4f57600091610b5a575b5015610a69575b50825163140e25ad60e31b8152600481019190915260208160248160006001600160a01b0389165af19081156109b357600091610a37575b50610a05578151634faf793960e11b8152926020846004816001600160a01b0385165afa9384156109b3576000946109be575b5082516370a0823160e01b81523060048201529190602090839060249082906001600160a01b03165afa9182156109b35760009261097d575b50825163a9059cbb60e01b81526001600160a01b039091166004820152602481019190915291602090839081600081604481015b03926001600160a01b03165af191821561097257602092610955575b505160018152f35b61096b90833d85116102a1576102928183611227565b503861094d565b50513d6000823e3d90fd5b91506020823d6020116109ab575b8161099860209383611227565b81010312610436579051906109316108fd565b3d915061098b565b83513d6000823e3d90fd5b9093506020813d6020116109fd575b816109da60209383611227565b810103126104365751906001600160a01b038216820361043657909260206108c4565b3d91506109cd565b815162461bcd60e51b815260206004820152600b60248201526a1b5a5b9d0819985a5b195960aa1b6044820152606490fd5b90506020813d602011610a61575b81610a5260209383611227565b81010312610436575138610891565b3d9150610a45565b8351636eb1769f60e11b81523060048201526001600160a01b0386811660248301529190911690602081604481855afa908115610b4f57908391600091610b1a575b50101561085957835163095ea7b360e01b81526001600160a01b0386166004820152600019602482015290602090829060449082906000905af18015610b0f571561085957610b089060203d6020116102a1576102928183611227565b5038610859565b84513d6000823e3d90fd5b9150506020813d602011610b47575b81610b3660209383611227565b810103126104365782905138610aab565b3d9150610b29565b85513d6000823e3d90fd5b610b73915060203d6020116102a1576102928183611227565b38610852565b8351610b848161120c565b60018152602081016020368237815115610ce7576001600160a01b03871681528551631853304760e31b8152602060048201529151602483018190528291604483019160005b818110610cc55750600093928390039150829050837f00000000000000000000000000000000000000000000000000000000000000006001600160a01b03165af18015610b4f57610c1c575b50610825565b3d806000833e610c2c8183611227565b810190602081830312610436578051906001600160401b038211610436570181601f82011215610436578051906001600160401b038211610caf576020808360051b93895190610c7e83870183611227565b8152019282010192831161043657602001905b828210610c9f575050610c16565b8151815260209182019101610c91565b634e487b7160e01b600052604160045260246000fd5b82516001600160a01b0316845285945060209384019390920191600101610bca565b634e487b7160e01b600052603260045260246000fd5b610d16915060203d6020116102a1576102928183611227565b3861081f565b835162461bcd60e51b815260206004820152600b60248201526a1e995c9bc8185b5bdd5b9d60aa1b6044820152606490fd5b835162461bcd60e51b815260206004820152600c60248201526b7a65726f206164647265737360a01b6044820152606490fd5b919095506020823d602011610dcf575b81610d9e60209383611227565b81010312610436579051947f3a700941af6362d63bae3aafce3cc3a3f05b149061a37fb8678d9f6aea1201cf6106b3565b3d9150610d91565b87513d6000823e3d90fd5b815163a4168a9360e01b8152336004820152602490fd5b508060031936011261043657610e0d61119d565b6024356001600160401b03811161043657610e2f610e369136906004016111df565b3691611263565b918051610e428161120c565b601881526020927f216469726563745377617070657243616c6c4661696c6564000000000000000084830152344710610eab576000808686610e9596979851910134855af1610e8f611412565b9161177a565b8281805181010312610436578201519051908152f35b825162461bcd60e51b815260048101859052602660248201527f416464726573733a20696e73756666696369656e742062616c616e636520666f6044820152651c8818d85b1b60d21b6064820152608490fd5b503461043657602036600319011261043657610f1861119d565b610f20611300565b6001600160a01b03166000908152600260205220805460ff19166001179055005b5034610436576020366003190112610436576020906001600160a01b03610f6661119d565b166000526002825260ff81600020541690519015158152f35b50346104365760003660031901126104365760005490516001600160a01b039091168152602090f35b503461043657600036600319011261043657600154906001600160a01b0390338284160361101d57506bffffffffffffffffffffffff60a01b8092166001556000549133908316176000553391167f8be0079c531659141344cd1fd0a4f28419497f9722a3daafe3b4186f6b6457e0600080a3005b5162461bcd60e51b815260206004820152602960248201527f4f776e61626c6532537465703a2063616c6c6572206973206e6f7420746865206044820152683732bb9037bbb732b960b91b6064820152608490fd5b346104365760003660031901126104365761108b611300565b600180546001600160a01b0319908116909155600080549182168155906001600160a01b03167f8be0079c531659141344cd1fd0a4f28419497f9722a3daafe3b4186f6b6457e08280a3005b503461043657600036600319011261043657517f00000000000000000000000000000000000000000000000000000000000000006001600160a01b03168152602090f35b50346104365760203660031901126104365761113561119d565b61113d611300565b6001600160a01b03166000908152600260205220805460ff19169055005b34610436576000366003190112610436577f00000000000000000000000000000000000000000000000000000000000000006001600160a01b03168152602090f35b600435906001600160a01b038216820361043657565b606435906001600160a01b038216820361043657565b604435906001600160a01b038216820361043657565b9181601f84011215610436578235916001600160401b038311610436576020838186019501011161043657565b604081019081106001600160401b03821117610caf57604052565b90601f801991011681019081106001600160401b03821117610caf57604052565b6001600160401b038111610caf57601f01601f191660200190565b92919261126f82611248565b9161127d6040519384611227565b829481845281830111610436578281602093846000960137010152565b9080601f83011215610436578160206112b593359101611263565b90565b60005b8381106112cb5750506000910152565b81810151838201526020016112bb565b906020916112f4815180928185528580860191016112b8565b601f01601f1916010190565b6000546001600160a01b0316330361131457565b606460405162461bcd60e51b815260206004820152602060248201527f4f776e61626c653a2063616c6c6572206973206e6f7420746865206f776e65726044820152fd5b90816020910312610436575180151581036104365790565b9294939060609261138e9185526080602086015260808501906112db565b60408401959095526001600160a01b0316910152565b600060443d106112b557604051600319913d83016004833e81516001600160401b03918282113d60248401111761140157818401948551938411611409573d8501016020848701011161140157506112b592910160200190611227565b949350505050565b50949350505050565b3d1561143d573d9061142382611248565b916114316040519384611227565b82523d6000602084013e565b606090565b51906001600160a01b038216820361043657565b81601f8201121561043657805161146c81611248565b9261147a6040519485611227565b81845260208284010111610436576112b591602080850191016112b8565b908060209392818452848401376000828201840152601f01601f1916010190565b92949060018060a01b03808516916000958387526020956002875260409960ff8b8a205416156117445784169381169184831461173657826115875750505090858594939261152f8a51998a968795869463f6b13d3f60e01b865260048601526024850152606060448501526064840191611498565b03925af193841561157c57508193611548575b50505090565b9091809350813d8311611575575b6115608183611227565b81010312611572575051388080611542565b80fd5b503d611556565b51913d9150823e3d90fd5b8a51636eb1769f60e11b81523060048201526001600160a01b03919091166024820152959893959193918781604481885afa90811561172c579189939189989796959385916116eb575b508311611611575b5061152f908b519a8b978896879563a2c554d360e01b8752600487015260248601526044850152608060648501526084840191611498565b919394959650915089518781019063095ea7b360e01b8252866024820152600019604482015260448152608081018181106001600160401b038211176116d7578c5251899283929083905af1611665611412565b816116a7575b501561167e5785949392918791386115d9565b885162461bcd60e51b8152600481018790526002602482015261534160f01b6044820152606490fd5b805180159250889083156116bf575b5050503861166b565b6116cf9350820181019101611358565b3887816116b6565b634e487b7160e01b8b52604160045260248bfd5b92945050919394959681813d8311611725575b6117088183611227565b810103126117215791839188979695948a9451906115d1565b8880fd5b503d6116fe565b8b513d8b823e3d90fd5b505050965050505050505090565b8a5162461bcd60e51b815260048101899052600f60248201526e10b0b63637bbb2b229bbb0b83832b960891b6044820152606490fd5b919290156117dc575081511561178e575090565b3b156117975790565b60405162461bcd60e51b815260206004820152601d60248201527f416464726573733a2063616c6c20746f206e6f6e2d636f6e74726163740000006044820152606490fd5b8251909150156117ef5750805190602001fd5b60405162461bcd60e51b8152602060048201529081906118139060248301906112db565b0390fdfea264697066735822122098b74800d6152b8cafdfa8a582e692950992f16ac3de40ed61f8eb0a850a478364736f6c63430008130033",
  "devdoc": {
    "kind": "dev",
    "methods": {
      "acceptOwnership()": {
        "details": "The new owner accepts the ownership transfer."
      },
      "addSwapper(address)": {
        "params": {
          "_swapper": "Address of the swapper to add."
        }
      },
      "directSwapperCall(address,bytes)": {
        "params": {
          "_swapper": "Address of the swapper to use.",
          "swapData": "Data to pass to the swapper. This data is encoded for a particular swap router."
        }
      },
      "exactSwap(address,uint256,address,address,bytes)": {
        "params": {
          "_amountIn": "Amount of tokens to swap.",
          "_fromAsset": "Address of the token to swap from.",
          "_swapData": "Data to pass to the swapper. This data is encoded for a particular swap router, usually given by an API. The swapper will decode the data and re-encode it with the new amountIn.",
          "_swapper": "Address of the swapper to use.",
          "_toAsset": "Address of the token to swap to."
        }
      },
      "owner()": {
        "details": "Returns the address of the current owner."
      },
      "pendingOwner()": {
        "details": "Returns the address of the pending owner."
      },
      "prepareAndForward(bytes32,bytes,uint256,address)": {
        "details": "This function is intended to be called by the xReceive function, and should not be called outside of that context. The function is `public` so that it can be used with try-catch.",
        "params": {
          "_amount": "- The amount of funds received in this transfer",
          "_asset": "- The asset of the funds received in this transfer",
          "_data": "- The data to be prepared",
          "_transferId": "- The transfer ID of the transfer that triggered this call"
        }
      },
      "removeSwapper(address)": {
        "params": {
          "_swapper": "Address of the swapper to remove."
        }
      },
      "renounceOwnership()": {
        "details": "Leaves the contract without owner. It will not be possible to call `onlyOwner` functions anymore. Can only be called by the current owner. NOTE: Renouncing ownership will leave the contract without an owner, thereby removing any functionality that is only available to the owner."
      },
      "transferOwnership(address)": {
        "details": "Starts the ownership transfer of the contract to a new account. Replaces the pending transfer if there is one. Can only be called by the current owner."
      },
      "xReceive(bytes32,uint256,address,address,uint32,bytes)": {
        "details": "_originSender and _origin are not used in this implementation because this is meant for an \"unauthenticated\" call. This means any router can call this function and no guarantees are made on the data passed in. This should only be used when there are funds passed into the contract that need to be forwarded to another contract. This guarantees economically that there is no reason to call this function maliciously, because the router would be spending their own funds.",
        "params": {
          "_amount": "- The amount of funds received in this transfer.",
          "_asset": "- The asset of the funds received in this transfer.",
          "_callData": "- The data to be prepared and forwarded. Fallback address needs to be encoded in the data to be used in case the forward fails.",
          "_transferId": "- The transfer ID of the transfer that triggered this call."
        }
      }
    },
    "version": 1
  },
  "userdoc": {
    "errors": {
      "ForwarderXReceiver__onlyConnext(address)": [
        {
          "notice": "ERRORS"
        }
      ]
    },
    "events": {
      "ForwardedFunctionCallFailed(bytes32)": {
        "notice": "EVENTS"
      }
    },
    "kind": "user",
    "methods": {
      "addSwapper(address)": {
        "notice": "Add a swapper to the list of allowed swappers."
      },
      "directSwapperCall(address,bytes)": {
        "notice": "Swap an exact amount of tokens for another token. Uses a direct call to the swapper to allow easy swaps on the source side where the amount does not need to be changed."
      },
      "exactSwap(address,uint256,address,address,bytes)": {
        "notice": "Swap an exact amount of tokens for another token."
      },
      "prepareAndForward(bytes32,bytes,uint256,address)": {
        "notice": "Prepares the data for the function call and forwards it. This can execute any arbitrary function call in a two step process. For example, _prepare can be used to swap funds on a DEX, and _forwardFunctionCall can be used to call a contract with the swapped funds."
      },
      "removeSwapper(address)": {
        "notice": "Remove a swapper from the list of allowed swappers."
      },
      "xReceive(bytes32,uint256,address,address,uint32,bytes)": {
        "notice": "Receives funds from Connext and forwards them to a contract, using a two step process which is defined by the developer."
      }
    },
    "version": 1
  },
  "storageLayout": {
    "storage": [
      {
        "astId": 1334,
        "contract": "contracts/integration/Midas/MidasProtocolTarget.sol:MidasProtocolTarget",
        "label": "_owner",
        "offset": 0,
        "slot": "0",
        "type": "t_address"
      },
      {
        "astId": 1447,
        "contract": "contracts/integration/Midas/MidasProtocolTarget.sol:MidasProtocolTarget",
        "label": "_pendingOwner",
        "offset": 0,
        "slot": "1",
        "type": "t_address"
      },
      {
        "astId": 4944,
        "contract": "contracts/integration/Midas/MidasProtocolTarget.sol:MidasProtocolTarget",
        "label": "allowedSwappers",
        "offset": 0,
        "slot": "2",
        "type": "t_mapping(t_address,t_bool)"
      }
    ],
    "types": {
      "t_address": {
        "encoding": "inplace",
        "label": "address",
        "numberOfBytes": "20"
      },
      "t_bool": {
        "encoding": "inplace",
        "label": "bool",
        "numberOfBytes": "1"
      },
      "t_mapping(t_address,t_bool)": {
        "encoding": "mapping",
        "key": "t_address",
        "label": "mapping(address => bool)",
        "numberOfBytes": "32",
        "value": "t_bool"
      }
    }
  }
}