{
  "address": "0x9aC21E7373E64B8C60e3C1f70c6D43da3aF016d4",
  "abi": [
    {
      "inputs": [
        {
          "internalType": "address",
          "name": "_uniV3Router",
          "type": "address"
        }
      ],
      "stateMutability": "nonpayable",
      "type": "constructor"
    },
    {
      "inputs": [
        {
          "internalType": "uint256",
          "name": "_amountIn",
          "type": "uint256"
        },
        {
          "internalType": "address",
          "name": "_fromAsset",
          "type": "address"
        },
        {
          "internalType": "address",
          "name": "_toAsset",
          "type": "address"
        },
        {
          "internalType": "bytes",
          "name": "_swapData",
          "type": "bytes"
        }
      ],
      "name": "swap",
      "outputs": [
        {
          "internalType": "uint256",
          "name": "amountOut",
          "type": "uint256"
        }
      ],
      "stateMutability": "payable",
      "type": "function"
    },
    {
      "inputs": [],
      "name": "uniswapV3Router",
      "outputs": [
        {
          "internalType": "contract ISwapRouter",
          "name": "",
          "type": "address"
        }
      ],
      "stateMutability": "view",
      "type": "function"
    }
  ],
  "transactionHash": "0x8c54edf650c9902e616949ab372c4e15e0cd75923723ac0ef4b9f62f918d8e2e",
  "args": [
    "0xE592427A0AEce92De3Edee1F18E0157C05861564"
  ],
  "numDeployments": 1,
  "solcInputHash": "3d6ea6ceed383d9e191019c3df5eb497",
  "bytecode": "0x60a03461007a57601f61066238819003918201601f19168301916001600160401b0383118484101761007f5780849260209460405283398101031261007a57516001600160a01b0381169081900361007a576080526040516105cc908161009682396080518181816102240152818161039601526104ed0152f35b600080fd5b634e487b7160e01b600052604160045260246000fdfe608080604052600436101561001357600080fd5b60003560e01c9081632c76d7a6146104da575063a2c554d31461003557600080fd5b60803660031901126103f8576024356001600160a01b03811690036103f8576044356001600160a01b03811690036103f85767ffffffffffffffff606435116103f8573660236064350112156103f8576064356004013567ffffffffffffffff81116103f857366024826064350101116103f8576000906040516323b872dd60e01b60208201523360248201523060448201526004356064820152606481528060a081011067ffffffffffffffff60a0830111176104115760008160a0829301604052602081519101826024355af161010c61053e565b816104ab575b501561048057604090606435906064350103126103f8576024606435013562ffffff811681036103f8576001600160a01b03604435811660243590911603610212575b5060405163a9059cbb60e01b602082019081523360248301526044820183905260009182919061019281606481015b03601f19810183528261051c565b5190826044355af16101a261053e565b816101e3575b50156101b957602090604051908152f35b60405162461bcd60e51b815260206004820152600260248201526114d560f21b6044820152606490fd5b80518015925082156101f8575b5050386101a8565b61020b925060208091830101910161057e565b38806101f0565b60405163095ea7b360e01b60208201527f00000000000000000000000000000000000000000000000000000000000000006001600160a01b031660248201526004356044820152909150600090819061026e8160648101610184565b602081519101826024355af161028261053e565b81610451575b501561042757604051908161010081011067ffffffffffffffff610100840111176104115762ffffff90610100830160405260018060a01b0360243516835260018060a01b0360443516602084015216604082015230606082015242608082015260043560a08201526044606435013560c0820152600060e08201526040519063414bf38960e01b825260018060a01b03815116600483015260018060a01b03602082015116602483015262ffffff604082015116604483015260018060a01b0360608201511660648301526080810151608483015260a081015160a483015260c081015160c483015260e060018060a01b039101511660e482015260208161010481600060018060a01b037f0000000000000000000000000000000000000000000000000000000000000000165af1908115610405576000916103ce575b5038610155565b90506020813d6020116103fd575b816103e96020938361051c565b810103126103f85751386103c7565b600080fd5b3d91506103dc565b6040513d6000823e3d90fd5b634e487b7160e01b600052604160045260246000fd5b60405162461bcd60e51b8152602060048201526002602482015261534160f01b6044820152606490fd5b8051801592508215610466575b505038610288565b610479925060208091830101910161057e565b388061045e565b60405162461bcd60e51b815260206004820152600360248201526229aa2360e91b6044820152606490fd5b80518015925082156104c0575b505038610112565b6104d3925060208091830101910161057e565b38806104b8565b346103f85760003660031901126103f8577f00000000000000000000000000000000000000000000000000000000000000006001600160a01b03168152602090f35b90601f8019910116810190811067ffffffffffffffff82111761041157604052565b3d15610579573d9067ffffffffffffffff8211610411576040519161056d601f8201601f19166020018461051c565b82523d6000602084013e565b606090565b908160209103126103f8575180151581036103f8579056fea264697066735822122088e6f1e61d887206b870776cd92a16b946aad4aa9513dfd20af37ca02e7e35e764736f6c63430008130033",
  "devdoc": {
    "kind": "dev",
    "methods": {
      "swap(uint256,address,address,bytes)": {
        "details": "Decode the passed in data and re-encode it with the correct amountIn. This is because the amountIn is not known until the funds are transferred to this contract.",
        "params": {
          "_amountIn": "Amount of tokens to swap.",
          "_fromAsset": "Address of the token to swap from.",
          "_swapData": "Data to pass to the 1inch aggregator router.",
          "_toAsset": "Address of the token to swap to."
        }
      }
    },
    "title": "UniV3Swapper",
    "version": 1
  },
  "userdoc": {
    "kind": "user",
    "methods": {
      "swap(uint256,address,address,bytes)": {
        "notice": "Swap the given amount of tokens using 1inch."
      }
    },
    "notice": "Swapper contract for UniswapV3 swaps.",
    "version": 1
  },
  "storageLayout": {
    "storage": [],
    "types": null
  }
}