{
  "address": "0x1135Cc96A7E9d8f161BE8B6bDB74F896A9658a08",
  "abi": [
    {
      "inputs": [
        {
          "internalType": "address",
          "name": "_uniV3Router",
          "type": "address"
        }
      ],
      "stateMutability": "nonpayable",
      "type": "constructor"
    },
    {
      "inputs": [
        {
          "internalType": "uint256",
          "name": "_amountIn",
          "type": "uint256"
        },
        {
          "internalType": "address",
          "name": "_fromAsset",
          "type": "address"
        },
        {
          "internalType": "address",
          "name": "_toAsset",
          "type": "address"
        },
        {
          "internalType": "bytes",
          "name": "_swapData",
          "type": "bytes"
        }
      ],
      "name": "swap",
      "outputs": [
        {
          "internalType": "uint256",
          "name": "amountOut",
          "type": "uint256"
        }
      ],
      "stateMutability": "nonpayable",
      "type": "function"
    },
    {
      "inputs": [
        {
          "internalType": "uint256",
          "name": "_amountIn",
          "type": "uint256"
        },
        {
          "internalType": "address",
          "name": "_toAsset",
          "type": "address"
        },
        {
          "internalType": "bytes",
          "name": "_swapData",
          "type": "bytes"
        }
      ],
      "name": "swapETH",
      "outputs": [
        {
          "internalType": "uint256",
          "name": "amountOut",
          "type": "uint256"
        }
      ],
      "stateMutability": "payable",
      "type": "function"
    },
    {
      "inputs": [],
      "name": "uniswapV3Router",
      "outputs": [
        {
          "internalType": "contract ISmartRouter",
          "name": "",
          "type": "address"
        }
      ],
      "stateMutability": "view",
      "type": "function"
    },
    {
      "stateMutability": "payable",
      "type": "receive"
    }
  ],
  "transactionHash": "0xe1e534368547f7f788a7a13cffb332524edc5a3d4438af1f430a0df266ffd86f",
  "args": [
    "0xE592427A0AEce92De3Edee1F18E0157C05861564"
  ],
  "numDeployments": 1,
  "solcInputHash": "5baa44abeea841b29c26c38421b92a9b",
  "bytecode": "0x60a03461007957601f610a3e38819003918201601f19168301916001600160401b0383118484101761007e5780849260209460405283398101031261007957516001600160a01b03811690819003610079576080526040516109a99081610095823960805181818160b301528181610389015261067e0152f35b600080fd5b634e487b7160e01b600052604160045260246000fdfe6080604081815260049081361015610022575b505050361561002057600080fd5b005b600092833560e01c9081632c76d7a61461066a57508063a2c554d3146102a45763f6b13d3f036100125760603660031901126102a05781356100626106ad565b9360443567ffffffffffffffff811161029c5761008290369086016106c3565b8334106102485790610096918101906106f1565b84516312a9293f60e21b8152919660209690926001600160a01b037f00000000000000000000000000000000000000000000000000000000000000008116939189818581885afa9081156101f557908291889161021b575b501694169586151560001461020357843b156101ff578751630d0e30db60e41b815299868b8581858a5af19a8b156101f5578a9b9a9798999a6101db575b5062ffffff9061018498998b519761014389610713565b885288880152168986015233606086015242608086015260a085015260c08401528560e084015285875180968195829463414bf38960e01b8452830161079b565b03925af19182156101d0579161019e575b50905b51908152f35b90508281813d83116101c9575b6101b5818361075a565b810103126101c4575138610195565b600080fd5b503d6101ab565b8351903d90823e3d90fd5b90610184986101ed62ffffff93610746565b98509061012c565b89513d89823e3d90fd5b8580fd5b979850505050505050610216823361090c565b610198565b61023b91508b3d8d11610241575b610233818361075a565b81019061077c565b386100ee565b503d610229565b845162461bcd60e51b8152602081880152602860248201527f50616e63616b655633537761707065723a206d73672e76616c756520213d205f60448201526730b6b7bab73a24b760c11b6064820152608490fd5b5080fd5b8280fd5b5082903461029c57608036600319011261029c578235916102c36106ad565b936001600160a01b03604435818116959192908681036106665767ffffffffffffffff92606435848111610662576102fe90369085016106c3565b999088519a60209b8c8101906323b872dd60e01b8252602498338a8301523060448301528660648301526064825260a082019082821090821117610650578c52518a9182919082875af1610350610802565b81610620575b50156105f85790610369918101906106f1565b9099828816928c8483146105df578b5163095ea7b360e01b9181019182527f00000000000000000000000000000000000000000000000000000000000000008b166001600160a01b0381168b830190815260208101899052909794938d9384939192909184916103e79082906040015b03601f19810183528261075a565b51925af18d6103f4610802565b826105ad575b50501561058557159a8a516312a9293f60e21b81528d818981895afa90811561057b57928d8f96938c8f97948f9d9c9b9a978e9161055e575b50169c6104959762ffffff938f901561055657905b519661045388610713565b87521688860152168d84015230606084015242608084015260a083015260c08201528760e08201528a51998a8094819363414bf38960e01b835289830161079b565b03925af195861561054c578496610519575b5085976000146105085750833b156102a057829185918388519687948593632e1a7d4d60e01b85528401525af19081156104fd57509061019892916104ee575b503361090c565b6104f790610746565b856104e7565b8451903d90823e3d90fd5b92505050610216929150339061085a565b9095508881813d8311610545575b610531818361075a565b81010312610541575194896104a7565b8380fd5b503d610527565b87513d86823e3d90fd5b508a90610448565b61057591508a3d8c1161024157610233818361075a565b38610433565b8c513d8d823e3d90fd5b50895162461bcd60e51b81528087018d905260028189015261534160f01b6044820152606490fd5b80919250519182159283156105c7575b5050508d8f6103fa565b6105d79350820181019101610842565b8e8e816105bd565b505050505093509550505061021691508093339061085a565b895162461bcd60e51b81528087018d90526003818901526229aa2360e91b6044820152606490fd5b8051801592508e908315610638575b5050508d610356565b6106489350820181019101610842565b8d8d8161062f565b634e487b7160e01b8c5260418952898cfd5b8680fd5b8480fd5b84903461029c578160031936011261029c577f00000000000000000000000000000000000000000000000000000000000000006001600160a01b03168152602090f35b602435906001600160a01b03821682036101c457565b9181601f840112156101c45782359167ffffffffffffffff83116101c457602083818601950101116101c457565b91908260409103126101c457813562ffffff811681036101c457916020013590565b610100810190811067ffffffffffffffff82111761073057604052565b634e487b7160e01b600052604160045260246000fd5b67ffffffffffffffff811161073057604052565b90601f8019910116810190811067ffffffffffffffff82111761073057604052565b908160209103126101c457516001600160a01b03811681036101c45790565b91909160e06101008201938160018060a01b039182815116855282602082015116602086015262ffffff60408201511660408601528260608201511660608601526080810151608086015260a081015160a086015260c081015160c0860152015116910152565b3d1561083d573d9067ffffffffffffffff82116107305760405191610831601f8201601f19166020018461075a565b82523d6000602084013e565b606090565b908160209103126101c4575180151581036101c45790565b60405163a9059cbb60e01b602082019081526001600160a01b0390931660248201526044810193909352600092839290839061089981606481016103d9565b51925af16108a5610802565b816108dd575b50156108b357565b60405162461bcd60e51b815260206004820152600260248201526114d560f21b6044820152606490fd5b80518015925082156108f2575b5050386108ab565b6109059250602080918301019101610842565b38806108ea565b604051602081019080821067ffffffffffffffff831117610730576000938493848094938194604052525af1610940610802565b501561094857565b60405162461bcd60e51b815260206004820152600360248201526253544560e81b6044820152606490fdfea26469706673582212202fbf90130212475c1efb21e65e95a9c32cdbb7b66e2e7f35e284ae74909b04a264736f6c63430008130033",
  "devdoc": {
    "kind": "dev",
    "methods": {
      "swap(uint256,address,address,bytes)": {
        "details": "Decode the passed in data and re-encode it with the correct amountIn. This is because the amountIn is not known until the funds are transferred to this contract.",
        "params": {
          "_amountIn": "Amount of tokens to swap.",
          "_fromAsset": "Address of the token to swap from.",
          "_swapData": "Data to pass to the UniV3 router.",
          "_toAsset": "Address of the token to swap to."
        }
      },
      "swapETH(uint256,address,bytes)": {
        "details": "Decode the passed in data and re-encode it with the correct amountIn. This is because the amountIn is not known until the funds are transferred to this contract.",
        "params": {
          "_amountIn": "Amount of tokens to swap.",
          "_swapData": "Data to pass to the UniV3 router.",
          "_toAsset": "Address of the token to swap to."
        }
      }
    },
    "title": "UniV3Swapper",
    "version": 1
  },
  "userdoc": {
    "kind": "user",
    "methods": {
      "swap(uint256,address,address,bytes)": {
        "notice": "Swap the given amount of tokens using UniV3."
      },
      "swapETH(uint256,address,bytes)": {
        "notice": "Swap the given amount of ETH using UniV3Swapper."
      }
    },
    "notice": "Swapper contract for UniV3 swaps.",
    "version": 1
  },
  "storageLayout": {
    "storage": [],
    "types": null
  }
}