{
  "address": "0x3045597e25f8C57e32c08Fe5276c5Cf4AA4dD7f7",
  "abi": [
    {
      "inputs": [
        {
          "internalType": "address",
          "name": "_connext",
          "type": "address"
        },
        {
          "internalType": "address",
          "name": "_lockbox",
          "type": "address"
        },
        {
          "internalType": "address",
          "name": "_erc20",
          "type": "address"
        },
        {
          "internalType": "address",
          "name": "_xerc20",
          "type": "address"
        }
      ],
      "stateMutability": "nonpayable",
      "type": "constructor"
    },
    {
      "inputs": [
        {
          "internalType": "address",
          "name": "sender",
          "type": "address"
        }
      ],
      "name": "XReceiver__onlyConnext",
      "type": "error"
    },
    {
      "inputs": [],
      "name": "connext",
      "outputs": [
        {
          "internalType": "contract IConnext",
          "name": "",
          "type": "address"
        }
      ],
      "stateMutability": "view",
      "type": "function"
    },
    {
      "inputs": [],
      "name": "erc20",
      "outputs": [
        {
          "internalType": "contract IERC20",
          "name": "",
          "type": "address"
        }
      ],
      "stateMutability": "view",
      "type": "function"
    },
    {
      "inputs": [],
      "name": "lockbox",
      "outputs": [
        {
          "internalType": "contract IXERC20Lockbox",
          "name": "",
          "type": "address"
        }
      ],
      "stateMutability": "view",
      "type": "function"
    },
    {
      "inputs": [
        {
          "internalType": "bytes32",
          "name": "_transferId",
          "type": "bytes32"
        },
        {
          "internalType": "uint256",
          "name": "_amount",
          "type": "uint256"
        },
        {
          "internalType": "address",
          "name": "_asset",
          "type": "address"
        },
        {
          "internalType": "address",
          "name": "_originSender",
          "type": "address"
        },
        {
          "internalType": "uint32",
          "name": "_origin",
          "type": "uint32"
        },
        {
          "internalType": "bytes",
          "name": "_callData",
          "type": "bytes"
        }
      ],
      "name": "xReceive",
      "outputs": [
        {
          "internalType": "bytes",
          "name": "",
          "type": "bytes"
        }
      ],
      "stateMutability": "nonpayable",
      "type": "function"
    },
    {
      "inputs": [
        {
          "internalType": "uint32",
          "name": "_destination",
          "type": "uint32"
        },
        {
          "internalType": "address",
          "name": "_to",
          "type": "address"
        },
        {
          "internalType": "address",
          "name": "_asset",
          "type": "address"
        },
        {
          "internalType": "address",
          "name": "_delegate",
          "type": "address"
        },
        {
          "internalType": "uint256",
          "name": "_amount",
          "type": "uint256"
        },
        {
          "internalType": "uint256",
          "name": "_slippage",
          "type": "uint256"
        },
        {
          "internalType": "bytes",
          "name": "_callData",
          "type": "bytes"
        }
      ],
      "name": "xcall",
      "outputs": [
        {
          "internalType": "bytes32",
          "name": "",
          "type": "bytes32"
        }
      ],
      "stateMutability": "payable",
      "type": "function"
    },
    {
      "inputs": [],
      "name": "xerc20",
      "outputs": [
        {
          "internalType": "contract IXERC20",
          "name": "",
          "type": "address"
        }
      ],
      "stateMutability": "view",
      "type": "function"
    }
  ],
  "transactionHash": "0x9ac220326d01e96b24be3c9c63e5f0585bfecbab9eedf9b2aa44fa8693cb1566",
  "args": [
    "0x8898B472C54c31894e3B9bb83cEA802a5d0e63C6",
    "0x713F8CE92B4369f2206AFEE90bD13464Bbfb28bE",
    "0xd8E2D95C8614F28169757cD6445a71c291dEc5bF",
    "0x3B350F202473932411772C8Cb76DB7975f42397E"
  ],
  "numDeployments": 3,
  "solcInputHash": "5f7124abd6b8147eb28e3b3ed9f78f24",
  "bytecode": "0x610100346100f657601f610cbf38819003918201601f19168301916001600160401b038311848410176100fb578084926080946040528339810103126100f65761004881610111565b9061005560208201610111565b9161006e606061006760408501610111565b9301610111565b6001600160a01b0391821660e05292811660805290811660a0521660c052604051610b99908161012682396080518181816101d9015281816106b001526109af015260a0518181816102a801528181610656015261096c015260c05181818160870152818161018a015261076b015260e05181818161016101528181610596015261078f0152f35b600080fd5b634e487b7160e01b600052604160045260246000fd5b51906001600160a01b03821682036100f65756fe6101206040908082526004908136101561001857600080fd5b60006101009281845260e08235811c93846366cc57021461099b57508363785e9e86146109555783638aac16ba146105c557508263de4b05481461057e578263fd614f41146100be57505063ffcbd8d01461007257600080fd5b346100ba575190816003193601126100b657517f00000000000000000000000000000000000000000000000000000000000000006001600160a01b03168152602090f35b5080fd5b5180fd5b849084346100ba5760c03660031901126100ba576024918235926100e06109de565b936100e96109f9565b5060843563ffffffff81160361057a5760a4359367ffffffffffffffff91828611610575573660238701121561057557858501359561012787610a5b565b6101338a519182610a39565b87815260209788820192368883830101116104df5787829101843784519082018901526001600160a01b03987f00000000000000000000000000000000000000000000000000000000000000008a163303610560577f00000000000000000000000000000000000000000000000000000000000000008a16939291908a168490036105275780899151810103126104415751918883168093036104415781156104f757887f000000000000000000000000000000000000000000000000000000000000000016908a51636eb1769f60e11b8152308982015282888201528981604481855afa9081156104eb578a9185918851916104b4575b5010610446575b5050803b1561044157895190632e1a7d4d60e01b82528288830152818781875180945af1801561043557610421575b50885163a9059cbb60e01b8882019081526001600160a01b0390931686820190815260208101929092529190829060400103976102a6601f19998a8101855284610a39565b7f000000000000000000000000000000000000000000000000000000000000000016918951948a8601908682109082111761040f578a528785527f5361666545524332303a206c6f772d6c6576656c2063616c6c206661696c656488860152835190516103449594939282919082855af1903d15610406573d9261032984610a5b565b936103368c519586610a39565b8452513d908985013e610a8f565b8051908482610397575b505050505092908251938492818452606051918281860152815b838110610382575050838201850152601f01168101030190f35b60808101518882018801528795508101610368565b806103a6938301019101610a77565b156103b35780808461034e565b602a9060849386519362461bcd60e51b85528401528201527f5361666545524332303a204552433230206f7065726174696f6e20646964206e6044820152691bdd081cdd58d8d9595960b21b6064820152fd5b60609250610a8f565b634e487b7160e01b8c5260418852868cfd5b61042a90610a0f565b825180156102615780fd5b8a5185513d90823e3d90fd5b835180fd5b6044918c519283809263095ea7b360e01b8252868d8301526000198c8301528951905af180156104a85761047b575b88610232565b61049a90893d8b116104a1575b6104928183610a39565b810190610a77565b508b610475565b503d610488565b8b5186513d90823e3d90fd5b928092508391503d83116104e4575b6104cd8183610a39565b810103126104df57838a91518f61022b565b855180fd5b503d6104c3565b8c5187513d90823e3d90fd5b895162461bcd60e51b8152808801899052600b818801526a16995c9bc8185b5bdd5b9d60aa1b6044820152606490fd5b8a5162461bcd60e51b81528089018a90526014818901527315dc9bdb99c8185cdcd95d081c9958d95a5d995960621b6044820152606490fd5b8a5163298655cb60e21b815233818a01528790fd5b505180fd5b8680fd5b505050346100ba575190816003193601126100b657517f00000000000000000000000000000000000000000000000000000000000000006001600160a01b03168152602090f35b80868693849360031936011261044157803563ffffffff8116809103610950576001600160a01b0360248035828116949193929085900361094b576106086109de565b506106116109f9565b9360843560c4359267ffffffffffffffff96878511610946573660238601121561094657848601359788116109465736848987010111610946578b60208060648e8e877f0000000000000000000000000000000000000000000000000000000000000000166080525194859384926323b872dd60e01b84528d3390850152308c8501528a604485015252516080515af180156108ed57610928575b50817f00000000000000000000000000000000000000000000000000000000000000001660a0528a8c878c518092818061070e8a63095ea7b360e01b98898452519660a05190840160209093929193604081019460018060a01b031681520152565b0391516080515af1801561091c576108fe575b5060a0513b156108f9578a518060c05263b6b55f2560e01b9052838760c05101528c5160c05186818360a0515af180156108ed57878c8e9f6107da9b9c9d9e9f88946108dd575b877f00000000000000000000000000000000000000000000000000000000000000001695887f0000000000000000000000000000000000000000000000000000000000000000169d8e94519687958694859485525197840160209093929193604081019460018060a01b031681520152565b039151865af180156108d0578b9695949392918f916108b2575b50508c519b8c9a8b996345560b5d60e11b8b528a0152858901526044880152166064860152608485015260a43560a48501528960c48501528160e48501526101049201828401378851828601820152875194601f01601f19168201829003019134905af19384156108a657805194610871575b5050519182525190f35b9091935082513d811161089f575b6108898184610a39565b82845191810103126100ba575051918380610867565b503d61087f565b8251903d9051823e3d90fd5b6108c891513d81116104a1576104928183610a39565b508d386107f4565b8f8e51903d9051823e3d90fd5b6108e860c051610a0f565b610768565b8b518e513d90823e3d90fd5b8c5180fd5b610915908d513d81116104a1576104928183610a39565b508e610721565b8c518f513d90823e3d90fd5b61093f908c513d81116104a1576104928183610a39565b508d6106ac565b8b5180fd5b875180fd5b845180fd5b8585346100ba575190816003193601126100b657517f00000000000000000000000000000000000000000000000000000000000000006001600160a01b03168152602090f35b8390346100b657816003193601126100b6577f00000000000000000000000000000000000000000000000000000000000000006001600160a01b03168152602090f35b604435906001600160a01b03821682036109f457565b600080fd5b606435906001600160a01b03821682036109f457565b67ffffffffffffffff8111610a2357604052565b634e487b7160e01b600052604160045260246000fd5b90601f8019910116810190811067ffffffffffffffff821117610a2357604052565b67ffffffffffffffff8111610a2357601f01601f191660200190565b908160209103126109f4575180151581036109f45790565b91929015610af15750815115610aa3575090565b3b15610aac5790565b60405162461bcd60e51b815260206004820152601d60248201527f416464726573733a2063616c6c20746f206e6f6e2d636f6e74726163740000006044820152606490fd5b825190915015610b045750805190602001fd5b6040519062461bcd60e51b82528160208060048301528251908160248401526000935b828510610b4a575050604492506000838284010152601f80199101168101030190fd5b8481018201518686016044015293810193859350610b2756fea26469706673582212206099a8a22d78d0acf3f3700a41a0d165039cfd8d982f8e0a350339651dcda88364736f6c63430008130033",
  "devdoc": {
    "kind": "dev",
    "methods": {
      "xReceive(bytes32,uint256,address,address,uint32,bytes)": {
        "details": "This function receives xERC20s from Connext and calls the Lockbox",
        "params": {
          "_amount": "The amount of funds that will be received.",
          "_asset": "The address of the asset that will be received.",
          "_callData": "The data that will be sent to the targets.",
          "_transferId": "The id of the transfer."
        }
      }
    },
    "version": 1
  },
  "userdoc": {
    "kind": "user",
    "methods": {},
    "version": 1
  },
  "storageLayout": {
    "storage": [],
    "types": null
  }
}