{
  "address": "0x78A92753D6D33F39f178f332538f0728D5d0928D",
  "abi": [
    {
      "inputs": [
        {
          "internalType": "address",
          "name": "_connext",
          "type": "address"
        },
        {
          "internalType": "address",
          "name": "_lockbox",
          "type": "address"
        },
        {
          "internalType": "address",
          "name": "_erc20",
          "type": "address"
        },
        {
          "internalType": "address",
          "name": "_xerc20",
          "type": "address"
        }
      ],
      "stateMutability": "nonpayable",
      "type": "constructor"
    },
    {
      "inputs": [
        {
          "internalType": "address",
          "name": "sender",
          "type": "address"
        }
      ],
      "name": "XReceiver__onlyConnext",
      "type": "error"
    },
    {
      "inputs": [],
      "name": "connext",
      "outputs": [
        {
          "internalType": "contract IConnext",
          "name": "",
          "type": "address"
        }
      ],
      "stateMutability": "view",
      "type": "function"
    },
    {
      "inputs": [],
      "name": "erc20",
      "outputs": [
        {
          "internalType": "contract IERC20",
          "name": "",
          "type": "address"
        }
      ],
      "stateMutability": "view",
      "type": "function"
    },
    {
      "inputs": [],
      "name": "lockbox",
      "outputs": [
        {
          "internalType": "contract IXERC20Lockbox",
          "name": "",
          "type": "address"
        }
      ],
      "stateMutability": "view",
      "type": "function"
    },
    {
      "inputs": [
        {
          "internalType": "bytes32",
          "name": "_transferId",
          "type": "bytes32"
        },
        {
          "internalType": "uint256",
          "name": "_amount",
          "type": "uint256"
        },
        {
          "internalType": "address",
          "name": "_asset",
          "type": "address"
        },
        {
          "internalType": "address",
          "name": "_originSender",
          "type": "address"
        },
        {
          "internalType": "uint32",
          "name": "_origin",
          "type": "uint32"
        },
        {
          "internalType": "bytes",
          "name": "_callData",
          "type": "bytes"
        }
      ],
      "name": "xReceive",
      "outputs": [
        {
          "internalType": "bytes",
          "name": "",
          "type": "bytes"
        }
      ],
      "stateMutability": "nonpayable",
      "type": "function"
    },
    {
      "inputs": [
        {
          "internalType": "uint32",
          "name": "_destination",
          "type": "uint32"
        },
        {
          "internalType": "address",
          "name": "_to",
          "type": "address"
        },
        {
          "internalType": "address",
          "name": "_asset",
          "type": "address"
        },
        {
          "internalType": "address",
          "name": "_delegate",
          "type": "address"
        },
        {
          "internalType": "uint256",
          "name": "_amount",
          "type": "uint256"
        },
        {
          "internalType": "uint256",
          "name": "_slippage",
          "type": "uint256"
        },
        {
          "internalType": "bytes",
          "name": "_callData",
          "type": "bytes"
        }
      ],
      "name": "xcall",
      "outputs": [
        {
          "internalType": "bytes32",
          "name": "",
          "type": "bytes32"
        }
      ],
      "stateMutability": "payable",
      "type": "function"
    },
    {
      "inputs": [],
      "name": "xerc20",
      "outputs": [
        {
          "internalType": "contract IXERC20",
          "name": "",
          "type": "address"
        }
      ],
      "stateMutability": "view",
      "type": "function"
    }
  ],
  "transactionHash": "0x9a75e1bedef28ef355b2932e76eb1e665be9a6a5b9df7ff70b89f0f27de14cb7",
  "args": [
    "0x8898B472C54c31894e3B9bb83cEA802a5d0e63C6",
    "0x713F8CE92B4369f2206AFEE90bD13464Bbfb28bE",
    "0xd8E2D95C8614F28169757cD6445a71c291dEc5bF",
    "0x3B350F202473932411772C8Cb76DB7975f42397E"
  ],
  "numDeployments": 1,
  "solcInputHash": "25bd20701b0128f2d0efbda94c126fc2",
  "bytecode": "0x610100346100f657601f610c2638819003918201601f19168301916001600160401b038311848410176100fb578084926080946040528339810103126100f65761004881610111565b9061005560208201610111565b9161006e606061006760408501610111565b9301610111565b6001600160a01b0391821660e05292811660805290811660a0521660c052604051610b00908161012682396080518181816101c60152818161069d015261091b015260a0518181816102a00152818161066b01526108d8015260c051818181607a015281816101770152610700015260e05181818161014e0152818161058d01526107260152f35b600080fd5b634e487b7160e01b600052604160045260246000fd5b51906001600160a01b03821682036100f65756fe608060408181526004918236101561001657600080fd5b600092833560e01c91826366cc57021461090757508163785e9e86146108c35781638aac16ba146105bc578163de4b054814610578578163fd614f41146100ad575063ffcbd8d01461006757600080fd5b346100a957816003193601126100a957517f00000000000000000000000000000000000000000000000000000000000000006001600160a01b03168152602090f35b5080fd5b9050346104305760c0366003190112610430576024908135916100ce61094a565b926100d7610960565b5060843563ffffffff8116036105735760a4359567ffffffffffffffff918288116100a957366023890112156100a9578785013597610115896109c2565b610121895191826109a0565b8981526020998a820192368883830101116104e057818692898e93018637830101526001600160a01b03977f00000000000000000000000000000000000000000000000000000000000000008916330361055e577f0000000000000000000000000000000000000000000000000000000000000000891693929190891684900361052557808b91518101031261043e57519187831680930361043e5781156104f557877f000000000000000000000000000000000000000000000000000000000000000016908951636eb1769f60e11b8152308982015282888201528b81604481855afa9081156104eb578b8a888f948890889583916104ad575b5010610442575b5050509150503b1561043e57838091878b5180948193632e1a7d4d60e01b8352878d8401525af180156104345790849161041c575b5050875163a9059cbb60e01b8a82019081526001600160a01b03909316868201908152602081019290925291908290604001039661029e601f19988981018552846109a0565b7f0000000000000000000000000000000000000000000000000000000000000000169188519489860190868210908211176104085789528985527f5361666545524332303a206c6f772d6c6576656c2063616c6c206661696c65648a86015251610339949392918391829182855af1903d156103ff573d61031e816109c2565b9061032b8b5192836109a0565b815280938b3d92013e6109f6565b805190868261038e575b505050505091815192818492835260605190818185015260005b8281106103795750506000838201850152601f01168101030190f35b6080810151878201870152869450810161035d565b8061039d9383010191016109de565b156103aa57808086610343565b835162461bcd60e51b8152918201859052602a908201527f5361666545524332303a204552433230206f7065726174696f6e20646964206e6044820152691bdd081cdd58d8d9595960b21b6064820152608490fd5b606092506109f6565b86604189634e487b7160e01b600052526000fd5b61042590610976565b610430578238610258565b8280fd5b89513d86823e3d90fd5b8380fd5b60449251958694859363095ea7b360e01b85528401526000198d8401525af180156104a357610476575b8a828b8a88610223565b610495908b3d8d1161049c575b61048d81836109a0565b8101906109de565b503861046c565b503d610483565b8a513d87823e3d90fd5b969550505050505081813d83116104e4575b6104c981836109a0565b810103126104e057828b8a888f948890513861021c565b8580fd5b503d6104bf565b8b513d88823e3d90fd5b885162461bcd60e51b81528088018b9052600b818801526a16995c9bc8185b5bdd5b9d60aa1b6044820152606490fd5b895162461bcd60e51b81528089018c90526014818901527315dc9bdb99c8185cdcd95d081c9958d95a5d995960621b6044820152606490fd5b895163298655cb60e21b815233818a01528790fd5b600080fd5b5050346100a957816003193601126100a957517f00000000000000000000000000000000000000000000000000000000000000006001600160a01b03168152602090f35b90508260e03660031901126108375781359263ffffffff84168094036100a9576001600160a01b0392602435848116919082900361043e576105fc61094a565b50610605610960565b956084359560c4359067ffffffffffffffff908183116108bf57366023840112156108bf57828501359182116108bf5736602483850101116108bf5786516323b872dd60e01b81523386820152306024820152604481018a905260209a908b816064818d7f000000000000000000000000000000000000000000000000000000000000000088165af18015610894576108a2575b50817f000000000000000000000000000000000000000000000000000000000000000016803b1561089e5789809160248d8c51948593849263b6b55f2560e01b84528d8401525af1801561089457908c91610873575b50918a916107778895948c9d8c9d857f0000000000000000000000000000000000000000000000000000000000000000169d8e91877f0000000000000000000000000000000000000000000000000000000000000000169d8e92519687958694859363095ea7b360e01b8552840160209093929193604081019460018060a01b031681520152565b03925af1801561086957918e9a9998979593918e97959361084c575b508c519b8c9a8b998a976345560b5d60e11b895288015260248701526044860152166064840152608483015260a43560a483015260e060c48301528060e48301528060246101049401848401378181018301849052601f01601f191681010301925af192831561084157809361080c575b505051908152f35b909192508382813d831161083a575b61082581836109a0565b81010312610837575051908380610804565b80fd5b503d61081b565b8251903d90823e3d90fd5b610862908c8d3d1061049c5761048d81836109a0565b508f610793565b8c513d8f823e3d90fd5b91610777889594928b9c6108878f96610976565b9c509294955050916106ef565b89513d8c823e3d90fd5b8980fd5b6108b8908c8d3d1061049c5761048d81836109a0565b508b610699565b8780fd5b5050346100a957816003193601126100a957517f00000000000000000000000000000000000000000000000000000000000000006001600160a01b03168152602090f35b8490346100a957816003193601126100a9577f00000000000000000000000000000000000000000000000000000000000000006001600160a01b03168152602090f35b604435906001600160a01b038216820361057357565b606435906001600160a01b038216820361057357565b67ffffffffffffffff811161098a57604052565b634e487b7160e01b600052604160045260246000fd5b90601f8019910116810190811067ffffffffffffffff82111761098a57604052565b67ffffffffffffffff811161098a57601f01601f191660200190565b90816020910312610573575180151581036105735790565b91929015610a585750815115610a0a575090565b3b15610a135790565b60405162461bcd60e51b815260206004820152601d60248201527f416464726573733a2063616c6c20746f206e6f6e2d636f6e74726163740000006044820152606490fd5b825190915015610a6b5750805190602001fd5b6040519062461bcd60e51b82528160208060048301528251908160248401526000935b828510610ab1575050604492506000838284010152601f80199101168101030190fd5b8481018201518686016044015293810193859350610a8e56fea2646970667358221220a26280b9abe7404fb6e4c77eb8db19fa3df486b33cee52cb3a5c4642c49741ad64736f6c63430008130033",
  "devdoc": {
    "kind": "dev",
    "methods": {
      "xReceive(bytes32,uint256,address,address,uint32,bytes)": {
        "details": "This function receives xERC20s from Connext and calls the Lockbox",
        "params": {
          "_amount": "The amount of funds that will be received.",
          "_asset": "The address of the asset that will be received.",
          "_callData": "The data that will be sent to the targets.",
          "_transferId": "The id of the transfer."
        }
      }
    },
    "version": 1
  },
  "userdoc": {
    "kind": "user",
    "methods": {},
    "version": 1
  },
  "storageLayout": {
    "storage": [],
    "types": null
  }
}