{
  "address": "0xa85233C63b9Ee964Add6F2cffe00Fd84eb32338f",
  "abi": [
    {
      "inputs": [
        {
          "internalType": "address",
          "name": "_from",
          "type": "address"
        },
        {
          "internalType": "address",
          "name": "_to",
          "type": "address"
        },
        {
          "internalType": "uint256",
          "name": "_amount",
          "type": "uint256"
        },
        {
          "internalType": "uint32",
          "name": "_amountOfSwaps",
          "type": "uint32"
        },
        {
          "internalType": "uint32",
          "name": "_swapInterval",
          "type": "uint32"
        },
        {
          "internalType": "address",
          "name": "_owner",
          "type": "address"
        },
        {
          "components": [
            {
              "internalType": "address",
              "name": "operator",
              "type": "address"
            },
            {
              "internalType": "enum IDCAPermissionManager.Permission[]",
              "name": "permissions",
              "type": "uint8[]"
            }
          ],
          "internalType": "struct IDCAPermissionManager.PermissionSet[]",
          "name": "_permissions",
          "type": "tuple[]"
        }
      ],
      "name": "deposit",
      "outputs": [
        {
          "internalType": "uint256",
          "name": "_positionId",
          "type": "uint256"
        }
      ],
      "stateMutability": "nonpayable",
      "type": "function"
    },
    {
      "inputs": [],
      "name": "hub",
      "outputs": [
        {
          "internalType": "contract IDCAHub",
          "name": "",
          "type": "address"
        }
      ],
      "stateMutability": "view",
      "type": "function"
    },
    {
      "stateMutability": "payable",
      "type": "receive"
    }
  ],
  "transactionHash": "0x7e5b7e016c77757b3d17e97c0901125fce35ac22ef341d3b1c021d8985595b02",
  "args": [],
  "numDeployments": 1,
  "solcInputHash": "64c36384f36066b6f50911fe7c827894",
  "bytecode": "0x60a060405273a5adc5484f9997fbf7d405b9aa62a7d88883c34573ffffffffffffffffffffffffffffffffffffffff1660809073ffffffffffffffffffffffffffffffffffffffff1681525034801561005757600080fd5b50608051610b0461007f6000396000818160a30152818160e501526101680152610b046000f3fe60806040526004361061002d5760003560e01c8063365a86fc146100395780636b29e1bd1461006457610034565b3661003457005b600080fd5b34801561004557600080fd5b5061004e6100a1565b60405161005b919061029a565b60405180910390f35b34801561007057600080fd5b5061008b6004803603810190610086919061064e565b6100c5565b604051610098919061071b565b60405180910390f35b7f000000000000000000000000000000000000000000000000000000000000000081565b60008773ffffffffffffffffffffffffffffffffffffffff1663095ea7b37f0000000000000000000000000000000000000000000000000000000000000000886040518363ffffffff1660e01b8152600401610122929190610745565b6020604051808303816000875af1158015610141573d6000803e3d6000fd5b505050506040513d601f19601f8201168201806040525081019061016591906107a6565b507f000000000000000000000000000000000000000000000000000000000000000073ffffffffffffffffffffffffffffffffffffffff16636b29e1bd898989898989896040518863ffffffff1660e01b81526004016101cb9796959493929190610a16565b6020604051808303816000875af11580156101ea573d6000803e3d6000fd5b505050506040513d601f19601f8201168201806040525081019061020e9190610aa1565b9050979650505050505050565b600073ffffffffffffffffffffffffffffffffffffffff82169050919050565b6000819050919050565b600061026061025b6102568461021b565b61023b565b61021b565b9050919050565b600061027282610245565b9050919050565b600061028482610267565b9050919050565b61029481610279565b82525050565b60006020820190506102af600083018461028b565b92915050565b6000604051905090565b600080fd5b600080fd5b60006102d48261021b565b9050919050565b6102e4816102c9565b81146102ef57600080fd5b50565b600081359050610301816102db565b92915050565b6000819050919050565b61031a81610307565b811461032557600080fd5b50565b60008135905061033781610311565b92915050565b600063ffffffff82169050919050565b6103568161033d565b811461036157600080fd5b50565b6000813590506103738161034d565b92915050565b600080fd5b6000601f19601f8301169050919050565b7f4e487b7100000000000000000000000000000000000000000000000000000000600052604160045260246000fd5b6103c78261037e565b810181811067ffffffffffffffff821117156103e6576103e561038f565b5b80604052505050565b60006103f96102b5565b905061040582826103be565b919050565b600067ffffffffffffffff8211156104255761042461038f565b5b602082029050602081019050919050565b600080fd5b600080fd5b600080fd5b600067ffffffffffffffff8211156104605761045f61038f565b5b602082029050602081019050919050565b6004811061047e57600080fd5b50565b60008135905061049081610471565b92915050565b60006104a96104a484610445565b6103ef565b905080838252602082019050602084028301858111156104cc576104cb610436565b5b835b818110156104f557806104e18882610481565b8452602084019350506020810190506104ce565b5050509392505050565b600082601f83011261051457610513610379565b5b8135610524848260208601610496565b91505092915050565b6000604082840312156105435761054261043b565b5b61054d60406103ef565b9050600061055d848285016102f2565b600083015250602082013567ffffffffffffffff81111561058157610580610440565b5b61058d848285016104ff565b60208301525092915050565b60006105ac6105a78461040a565b6103ef565b905080838252602082019050602084028301858111156105cf576105ce610436565b5b835b8181101561061657803567ffffffffffffffff8111156105f4576105f3610379565b5b808601610601898261052d565b855260208501945050506020810190506105d1565b5050509392505050565b600082601f83011261063557610634610379565b5b8135610645848260208601610599565b91505092915050565b600080600080600080600060e0888a03121561066d5761066c6102bf565b5b600061067b8a828b016102f2565b975050602061068c8a828b016102f2565b965050604061069d8a828b01610328565b95505060606106ae8a828b01610364565b94505060806106bf8a828b01610364565b93505060a06106d08a828b016102f2565b92505060c088013567ffffffffffffffff8111156106f1576106f06102c4565b5b6106fd8a828b01610620565b91505092959891949750929550565b61071581610307565b82525050565b6000602082019050610730600083018461070c565b92915050565b61073f816102c9565b82525050565b600060408201905061075a6000830185610736565b610767602083018461070c565b9392505050565b60008115159050919050565b6107838161076e565b811461078e57600080fd5b50565b6000815190506107a08161077a565b92915050565b6000602082840312156107bc576107bb6102bf565b5b60006107ca84828501610791565b91505092915050565b6107dc8161033d565b82525050565b600081519050919050565b600082825260208201905092915050565b6000819050602082019050919050565b610817816102c9565b82525050565b600081519050919050565b600082825260208201905092915050565b6000819050602082019050919050565b7f4e487b7100000000000000000000000000000000000000000000000000000000600052602160045260246000fd5b6004811061088957610888610849565b5b50565b600081905061089a82610878565b919050565b60006108aa8261088c565b9050919050565b6108ba8161089f565b82525050565b60006108cc83836108b1565b60208301905092915050565b6000602082019050919050565b60006108f08261081d565b6108fa8185610828565b935061090583610839565b8060005b8381101561093657815161091d88826108c0565b9750610928836108d8565b925050600181019050610909565b5085935050505092915050565b600060408301600083015161095b600086018261080e565b506020830151848203602086015261097382826108e5565b9150508091505092915050565b600061098c8383610943565b905092915050565b6000602082019050919050565b60006109ac826107e2565b6109b681856107ed565b9350836020820285016109c8856107fe565b8060005b85811015610a0457848403895281516109e58582610980565b94506109f083610994565b925060208a019950506001810190506109cc565b50829750879550505050505092915050565b600060e082019050610a2b600083018a610736565b610a386020830189610736565b610a45604083018861070c565b610a5260608301876107d3565b610a5f60808301866107d3565b610a6c60a0830185610736565b81810360c0830152610a7e81846109a1565b905098975050505050505050565b600081519050610a9b81610311565b92915050565b600060208284031215610ab757610ab66102bf565b5b6000610ac584828501610a8c565b9150509291505056fea2646970667358221220444002d3a0f711414206117cdb4cd2a5857a535ece2060b22a8a88e151d06f3d64736f6c63430008110033",
  "devdoc": {
    "kind": "dev",
    "methods": {
      "deposit(address,address,uint256,uint32,uint32,address,(address,uint8[])[])": {
        "params": {
          "_amount": "How many \"from\" tokens will be swapped in total",
          "_amountOfSwaps": "How many swaps to execute for this position",
          "_from": "The address of the \"from\" token",
          "_owner": "The address of the owner of the position being created",
          "_swapInterval": "How frequently the position's swaps should be executed",
          "_to": "The address of the \"to\" token"
        },
        "returns": {
          "_positionId": "The id of the created position"
        }
      }
    },
    "stateVariables": {
      "hub": {
        "details": "see https://docs.mean.finance/guides/smart-contract-registry"
      }
    },
    "version": 1
  },
  "userdoc": {
    "kind": "user",
    "methods": {
      "deposit(address,address,uint256,uint32,uint32,address,(address,uint8[])[])": {
        "notice": "Creates a new position"
      },
      "hub()": {
        "notice": "MeanFinance IDCAHub contract for deposit"
      }
    },
    "version": 1
  },
  "storageLayout": {
    "storage": [],
    "types": null
  }
}